{
  "contractName": "Profiles",
  "abi": [
    {
      "anonymous": false,
      "inputs": [
        {
          "indexed": false,
          "internalType": "uint256",
          "name": "profileId",
          "type": "uint256"
        },
        {
          "indexed": false,
          "internalType": "address",
          "name": "owner",
          "type": "address"
        },
        {
          "indexed": false,
          "internalType": "string",
          "name": "name",
          "type": "string"
        },
        {
          "indexed": false,
          "internalType": "uint64",
          "name": "created",
          "type": "uint64"
        },
        {
          "indexed": false,
          "internalType": "uint8",
          "name": "picId",
          "type": "uint8"
        }
      ],
      "name": "ProfileCreated",
      "type": "event"
    },
    {
      "anonymous": false,
      "inputs": [
        {
          "indexed": false,
          "internalType": "uint256",
          "name": "profileId",
          "type": "uint256"
        },
        {
          "indexed": false,
          "internalType": "address",
          "name": "owner",
          "type": "address"
        },
        {
          "indexed": false,
          "internalType": "string",
          "name": "name",
          "type": "string"
        },
        {
          "indexed": false,
          "internalType": "uint64",
          "name": "created",
          "type": "uint64"
        },
        {
          "indexed": false,
          "internalType": "uint8",
          "name": "picId",
          "type": "uint8"
        },
        {
          "indexed": false,
          "internalType": "uint256",
          "name": "heroId",
          "type": "uint256"
        }
      ],
      "name": "ProfileUpdated",
      "type": "event"
    },
    {
      "anonymous": false,
      "inputs": [
        {
          "indexed": true,
          "internalType": "bytes32",
          "name": "role",
          "type": "bytes32"
        },
        {
          "indexed": true,
          "internalType": "bytes32",
          "name": "previousAdminRole",
          "type": "bytes32"
        },
        {
          "indexed": true,
          "internalType": "bytes32",
          "name": "newAdminRole",
          "type": "bytes32"
        }
      ],
      "name": "RoleAdminChanged",
      "type": "event"
    },
    {
      "anonymous": false,
      "inputs": [
        {
          "indexed": true,
          "internalType": "bytes32",
          "name": "role",
          "type": "bytes32"
        },
        {
          "indexed": true,
          "internalType": "address",
          "name": "account",
          "type": "address"
        },
        {
          "indexed": true,
          "internalType": "address",
          "name": "sender",
          "type": "address"
        }
      ],
      "name": "RoleGranted",
      "type": "event"
    },
    {
      "anonymous": false,
      "inputs": [
        {
          "indexed": true,
          "internalType": "bytes32",
          "name": "role",
          "type": "bytes32"
        },
        {
          "indexed": true,
          "internalType": "address",
          "name": "account",
          "type": "address"
        },
        {
          "indexed": true,
          "internalType": "address",
          "name": "sender",
          "type": "address"
        }
      ],
      "name": "RoleRevoked",
      "type": "event"
    },
    {
      "inputs": [],
      "name": "DEFAULT_ADMIN_ROLE",
      "outputs": [
        {
          "internalType": "bytes32",
          "name": "",
          "type": "bytes32"
        }
      ],
      "stateMutability": "view",
      "type": "function"
    },
    {
      "inputs": [],
      "name": "MODERATOR_ROLE",
      "outputs": [
        {
          "internalType": "bytes32",
          "name": "",
          "type": "bytes32"
        }
      ],
      "stateMutability": "view",
      "type": "function"
    },
    {
      "inputs": [],
      "name": "POINTS_ROLE",
      "outputs": [
        {
          "internalType": "bytes32",
          "name": "",
          "type": "bytes32"
        }
      ],
      "stateMutability": "view",
      "type": "function"
    },
    {
      "inputs": [
        {
          "internalType": "address",
          "name": "",
          "type": "address"
        }
      ],
      "name": "addressToIndex",
      "outputs": [
        {
          "internalType": "uint256",
          "name": "",
          "type": "uint256"
        }
      ],
      "stateMutability": "view",
      "type": "function"
    },
    {
      "inputs": [
        {
          "internalType": "uint256",
          "name": "",
          "type": "uint256"
        }
      ],
      "name": "addresses",
      "outputs": [
        {
          "internalType": "address",
          "name": "",
          "type": "address"
        }
      ],
      "stateMutability": "view",
      "type": "function"
    },
    {
      "inputs": [
        {
          "internalType": "bytes32",
          "name": "role",
          "type": "bytes32"
        }
      ],
      "name": "getRoleAdmin",
      "outputs": [
        {
          "internalType": "bytes32",
          "name": "",
          "type": "bytes32"
        }
      ],
      "stateMutability": "view",
      "type": "function"
    },
    {
      "inputs": [
        {
          "internalType": "bytes32",
          "name": "role",
          "type": "bytes32"
        },
        {
          "internalType": "uint256",
          "name": "index",
          "type": "uint256"
        }
      ],
      "name": "getRoleMember",
      "outputs": [
        {
          "internalType": "address",
          "name": "",
          "type": "address"
        }
      ],
      "stateMutability": "view",
      "type": "function"
    },
    {
      "inputs": [
        {
          "internalType": "bytes32",
          "name": "role",
          "type": "bytes32"
        }
      ],
      "name": "getRoleMemberCount",
      "outputs": [
        {
          "internalType": "uint256",
          "name": "",
          "type": "uint256"
        }
      ],
      "stateMutability": "view",
      "type": "function"
    },
    {
      "inputs": [],
      "name": "governanceToken",
      "outputs": [
        {
          "internalType": "address",
          "name": "",
          "type": "address"
        }
      ],
      "stateMutability": "view",
      "type": "function"
    },
    {
      "inputs": [
        {
          "internalType": "bytes32",
          "name": "role",
          "type": "bytes32"
        },
        {
          "internalType": "address",
          "name": "account",
          "type": "address"
        }
      ],
      "name": "grantRole",
      "outputs": [],
      "stateMutability": "nonpayable",
      "type": "function"
    },
    {
      "inputs": [
        {
          "internalType": "bytes32",
          "name": "role",
          "type": "bytes32"
        },
        {
          "internalType": "address",
          "name": "account",
          "type": "address"
        }
      ],
      "name": "hasRole",
      "outputs": [
        {
          "internalType": "bool",
          "name": "",
          "type": "bool"
        }
      ],
      "stateMutability": "view",
      "type": "function"
    },
    {
      "inputs": [],
      "name": "heroesNftContract",
      "outputs": [
        {
          "internalType": "contract HeroCore",
          "name": "",
          "type": "address"
        }
      ],
      "stateMutability": "view",
      "type": "function"
    },
    {
      "inputs": [
        {
          "internalType": "string",
          "name": "",
          "type": "string"
        }
      ],
      "name": "nameToIndex",
      "outputs": [
        {
          "internalType": "uint256",
          "name": "",
          "type": "uint256"
        }
      ],
      "stateMutability": "view",
      "type": "function"
    },
    {
      "inputs": [
        {
          "internalType": "uint256",
          "name": "",
          "type": "uint256"
        }
      ],
      "name": "points",
      "outputs": [
        {
          "internalType": "uint256",
          "name": "",
          "type": "uint256"
        }
      ],
      "stateMutability": "view",
      "type": "function"
    },
    {
      "inputs": [
        {
          "internalType": "uint256",
          "name": "",
          "type": "uint256"
        }
      ],
      "name": "profiles",
      "outputs": [
        {
          "internalType": "uint256",
          "name": "id",
          "type": "uint256"
        },
        {
          "internalType": "address",
          "name": "owner",
          "type": "address"
        },
        {
          "internalType": "string",
          "name": "name",
          "type": "string"
        },
        {
          "internalType": "uint64",
          "name": "created",
          "type": "uint64"
        },
        {
          "internalType": "uint8",
          "name": "picId",
          "type": "uint8"
        },
        {
          "internalType": "uint256",
          "name": "heroId",
          "type": "uint256"
        },
        {
          "internalType": "bool",
          "name": "set",
          "type": "bool"
        },
        {
          "internalType": "enum Profiles.Profession",
          "name": "profession",
          "type": "uint8"
        }
      ],
      "stateMutability": "view",
      "type": "function"
    },
    {
      "inputs": [
        {
          "internalType": "bytes32",
          "name": "role",
          "type": "bytes32"
        },
        {
          "internalType": "address",
          "name": "account",
          "type": "address"
        }
      ],
      "name": "renounceRole",
      "outputs": [],
      "stateMutability": "nonpayable",
      "type": "function"
    },
    {
      "inputs": [],
      "name": "requireBalanceProfession",
      "outputs": [
        {
          "internalType": "uint256",
          "name": "",
          "type": "uint256"
        }
      ],
      "stateMutability": "view",
      "type": "function"
    },
    {
      "inputs": [
        {
          "internalType": "bytes32",
          "name": "role",
          "type": "bytes32"
        },
        {
          "internalType": "address",
          "name": "account",
          "type": "address"
        }
      ],
      "name": "revokeRole",
      "outputs": [],
      "stateMutability": "nonpayable",
      "type": "function"
    },
    {
      "inputs": [
        {
          "internalType": "address",
          "name": "_govToken",
          "type": "address"
        }
      ],
      "name": "initialize",
      "outputs": [],
      "stateMutability": "nonpayable",
      "type": "function"
    },
    {
      "inputs": [
        {
          "internalType": "address",
          "name": "profileAddress",
          "type": "address"
        }
      ],
      "name": "profileExists",
      "outputs": [
        {
          "internalType": "bool",
          "name": "exists",
          "type": "bool"
        }
      ],
      "stateMutability": "view",
      "type": "function"
    },
    {
      "inputs": [
        {
          "internalType": "string",
          "name": "name",
          "type": "string"
        }
      ],
      "name": "nameTaken",
      "outputs": [
        {
          "internalType": "bool",
          "name": "taken",
          "type": "bool"
        }
      ],
      "stateMutability": "view",
      "type": "function"
    },
    {
      "inputs": [
        {
          "internalType": "string",
          "name": "_name",
          "type": "string"
        },
        {
          "internalType": "uint8",
          "name": "_picId",
          "type": "uint8"
        }
      ],
      "name": "createProfile",
      "outputs": [
        {
          "internalType": "bool",
          "name": "success",
          "type": "bool"
        }
      ],
      "stateMutability": "nonpayable",
      "type": "function"
    },
    {
      "inputs": [
        {
          "internalType": "enum Profiles.Profession",
          "name": "_profession",
          "type": "uint8"
        }
      ],
      "name": "setProfession",
      "outputs": [
        {
          "internalType": "bool",
          "name": "success",
          "type": "bool"
        }
      ],
      "stateMutability": "nonpayable",
      "type": "function"
    },
    {
      "inputs": [
        {
          "internalType": "uint256",
          "name": "_value",
          "type": "uint256"
        }
      ],
      "name": "setRequireBalanceProfession",
      "outputs": [
        {
          "internalType": "bool",
          "name": "",
          "type": "bool"
        }
      ],
      "stateMutability": "nonpayable",
      "type": "function"
    },
    {
      "inputs": [
        {
          "internalType": "address",
          "name": "_address",
          "type": "address"
        }
      ],
      "name": "setHeroes",
      "outputs": [
        {
          "internalType": "bool",
          "name": "success",
          "type": "bool"
        }
      ],
      "stateMutability": "nonpayable",
      "type": "function"
    },
    {
      "inputs": [
        {
          "internalType": "uint8",
          "name": "_min",
          "type": "uint8"
        },
        {
          "internalType": "uint8",
          "name": "_max",
          "type": "uint8"
        }
      ],
      "name": "setNameLengths",
      "outputs": [
        {
          "internalType": "bool",
          "name": "success",
          "type": "bool"
        }
      ],
      "stateMutability": "nonpayable",
      "type": "function"
    },
    {
      "inputs": [
        {
          "internalType": "uint8",
          "name": "_max",
          "type": "uint8"
        }
      ],
      "name": "setPicMax",
      "outputs": [
        {
          "internalType": "bool",
          "name": "success",
          "type": "bool"
        }
      ],
      "stateMutability": "nonpayable",
      "type": "function"
    },
    {
      "inputs": [
        {
          "internalType": "uint256",
          "name": "profileId",
          "type": "uint256"
        },
        {
          "internalType": "string",
          "name": "_name",
          "type": "string"
        }
      ],
      "name": "changeName",
      "outputs": [
        {
          "internalType": "bool",
          "name": "success",
          "type": "bool"
        }
      ],
      "stateMutability": "nonpayable",
      "type": "function"
    },
    {
      "inputs": [
        {
          "internalType": "uint256",
          "name": "profileId",
          "type": "uint256"
        },
        {
          "internalType": "uint8",
          "name": "_picId",
          "type": "uint8"
        }
      ],
      "name": "changePic",
      "outputs": [
        {
          "internalType": "bool",
          "name": "success",
          "type": "bool"
        }
      ],
      "stateMutability": "nonpayable",
      "type": "function"
    },
    {
      "inputs": [
        {
          "internalType": "uint256",
          "name": "profileId",
          "type": "uint256"
        },
        {
          "internalType": "uint256",
          "name": "_heroId",
          "type": "uint256"
        }
      ],
      "name": "changeHeroPic",
      "outputs": [
        {
          "internalType": "bool",
          "name": "success",
          "type": "bool"
        }
      ],
      "stateMutability": "nonpayable",
      "type": "function"
    },
    {
      "inputs": [],
      "name": "getProfileCount",
      "outputs": [
        {
          "internalType": "uint256",
          "name": "count",
          "type": "uint256"
        }
      ],
      "stateMutability": "view",
      "type": "function"
    },
    {
      "inputs": [
        {
          "internalType": "address",
          "name": "profileAddress",
          "type": "address"
        }
      ],
      "name": "getProfileByAddress",
      "outputs": [
        {
          "internalType": "uint256",
          "name": "_id",
          "type": "uint256"
        },
        {
          "internalType": "address",
          "name": "_owner",
          "type": "address"
        },
        {
          "internalType": "string",
          "name": "_name",
          "type": "string"
        },
        {
          "internalType": "uint64",
          "name": "_created",
          "type": "uint64"
        },
        {
          "internalType": "uint8",
          "name": "_picId",
          "type": "uint8"
        },
        {
          "internalType": "uint256",
          "name": "_heroId",
          "type": "uint256"
        },
        {
          "internalType": "uint256",
          "name": "_points",
          "type": "uint256"
        },
        {
          "internalType": "enum Profiles.Profession",
          "name": "_profession",
          "type": "uint8"
        }
      ],
      "stateMutability": "view",
      "type": "function"
    },
    {
      "inputs": [
        {
          "internalType": "string",
          "name": "name",
          "type": "string"
        }
      ],
      "name": "getProfileByName",
      "outputs": [
        {
          "internalType": "uint256",
          "name": "_id",
          "type": "uint256"
        },
        {
          "internalType": "address",
          "name": "_owner",
          "type": "address"
        },
        {
          "internalType": "string",
          "name": "_name",
          "type": "string"
        },
        {
          "internalType": "uint64",
          "name": "_created",
          "type": "uint64"
        },
        {
          "internalType": "uint8",
          "name": "_picId",
          "type": "uint8"
        },
        {
          "internalType": "uint256",
          "name": "_heroId",
          "type": "uint256"
        },
        {
          "internalType": "uint256",
          "name": "_points",
          "type": "uint256"
        }
      ],
      "stateMutability": "view",
      "type": "function"
    },
    {
      "inputs": [
        {
          "internalType": "string",
          "name": "name",
          "type": "string"
        }
      ],
      "name": "getAddressByName",
      "outputs": [
        {
          "internalType": "address",
          "name": "profileAddress",
          "type": "address"
        }
      ],
      "stateMutability": "view",
      "type": "function"
    },
    {
      "inputs": [
        {
          "internalType": "address",
          "name": "account",
          "type": "address"
        }
      ],
      "name": "canSetProfession",
      "outputs": [
        {
          "internalType": "bool",
          "name": "",
          "type": "bool"
        }
      ],
      "stateMutability": "view",
      "type": "function"
    },
    {
      "inputs": [
        {
          "internalType": "address",
          "name": "_address",
          "type": "address"
        },
        {
          "internalType": "uint256",
          "name": "_points",
          "type": "uint256"
        }
      ],
      "name": "addPoints",
      "outputs": [
        {
          "internalType": "bool",
          "name": "success",
          "type": "bool"
        }
      ],
      "stateMutability": "nonpayable",
      "type": "function"
    }
  ],
  "bytecode": "0x608060405234801561001057600080fd5b50613269806100206000396000f3fe608060405234801561001057600080fd5b506004361061021c5760003560e01c80639799b4e711610125578063c4d66de8116100ad578063d547741f1161007c578063d547741f14610af8578063edf26d9b14610b24578063f667e0aa14610b41578063f6ebd47e14610b67578063f96dae0a14610b8a5761021c565b8063c4d66de814610a8d578063ca15c87314610ab3578063cb73580714610ad0578063d33c07e714610ad85761021c565b8063b5708ccc116100f4578063b5708ccc14610821578063bd3eaa6f14610829578063c1481626146108d2578063c36fe3d614610976578063c39cbef1146109e25761021c565b80639799b4e7146107505780639a65ddec1461076d5780639a859fb814610811578063a217fddf146108195761021c565b80634cd6959c116101a8578063797669c911610177578063797669c9146104de5780637d6df699146104e65780639010d07c1461064157806391d148541461068057806391fc437e146106ac5761021c565b80634cd6959c14610380578063507cd30f1461046f5780636b8c82b41461049b578063709d5eb3146104b85761021c565b80632fa32eb9116101ef5780632fa32eb9146102d857806336568abe146102fe5780633697611a1461032a578063393bca2d146103325780633f5df2461461035a5761021c565b806305cfa06f1461022157806321319c491461025b578063248a9ca31461027b5780632f2ff15d146102aa575b600080fd5b6102476004803603602081101561023757600080fd5b50356001600160a01b0316610b92565b604080519115158252519081900360200190f35b6102476004803603602081101561027157600080fd5b503560ff16610bc0565b6102986004803603602081101561029157600080fd5b5035610c3d565b60408051918252519081900360200190f35b6102d6600480360360408110156102c057600080fd5b50803590602001356001600160a01b0316610c52565b005b610247600480360360208110156102ee57600080fd5b50356001600160a01b0316610cbe565b6102d66004803603604081101561031457600080fd5b50803590602001356001600160a01b0316610dee565b610298610e4f565b6102476004803603604081101561034857600080fd5b5060ff81358116916020013516610e55565b6102476004803603604081101561037057600080fd5b508035906020013560ff16610ee9565b6103a66004803603602081101561039657600080fd5b50356001600160a01b0316611119565b60405180898152602001886001600160a01b0316815260200180602001876001600160401b031681526020018660ff1681526020018581526020018481526020018360038111156103f357fe5b8152602001828103825288818151815260200191508051906020019080838360005b8381101561042d578181015183820152602001610415565b50505050905090810190601f16801561045a5780820380516001836020036101000a031916815260200191505b50995050505050505050505060405180910390f35b6102476004803603604081101561048557600080fd5b506001600160a01b038135169060200135611300565b610247600480360360208110156104b157600080fd5b5035611514565b610247600480360360208110156104ce57600080fd5b50356001600160a01b0316611578565b610298611761565b61058a600480360360208110156104fc57600080fd5b810190602081018135600160201b81111561051657600080fd5b82018360208201111561052857600080fd5b803590602001918460018302840111600160201b8311171561054957600080fd5b91908080601f016020809104026020016040519081016040528093929190818152602001838380828437600092019190915250929550611773945050505050565b60405180888152602001876001600160a01b0316815260200180602001866001600160401b031681526020018560ff168152602001848152602001838152602001828103825287818151815260200191508051906020019080838360005b838110156106005781810151838201526020016105e8565b50505050905090810190601f16801561062d5780820380516001836020036101000a031916815260200191505b509850505050505050505060405180910390f35b6106646004803603604081101561065757600080fd5b50803590602001356119a6565b604080516001600160a01b039092168252519081900360200190f35b6102476004803603604081101561069657600080fd5b50803590602001356001600160a01b03166119be565b610247600480360360208110156106c257600080fd5b810190602081018135600160201b8111156106dc57600080fd5b8201836020820111156106ee57600080fd5b803590602001918460018302840111600160201b8311171561070f57600080fd5b91908080601f0160208091040260200160405190810160405280939291908181526020018383808284376000920191909152509295506119d6945050505050565b6102986004803603602081101561076657600080fd5b5035611a43565b6106646004803603602081101561078357600080fd5b810190602081018135600160201b81111561079d57600080fd5b8201836020820111156107af57600080fd5b803590602001918460018302840111600160201b831117156107d057600080fd5b91908080601f016020809104026020016040519081016040528093929190818152602001838380828437600092019190915250929550611a55945050505050565b610298611b2c565b610298611b32565b610664611b37565b6102476004803603604081101561083f57600080fd5b810190602081018135600160201b81111561085957600080fd5b82018360208201111561086b57600080fd5b803590602001918460018302840111600160201b8311171561088c57600080fd5b91908080601f0160208091040260200160405190810160405280939291908181526020018383808284376000920191909152509295505050903560ff169150611b469050565b610298600480360360208110156108e857600080fd5b810190602081018135600160201b81111561090257600080fd5b82018360208201111561091457600080fd5b803590602001918460018302840111600160201b8311171561093557600080fd5b91908080601f016020809104026020016040519081016040528093929190818152602001838380828437600092019190915250929550611f71945050505050565b6109936004803603602081101561098c57600080fd5b5035611f8e565b60405180898152602001886001600160a01b0316815260200180602001876001600160401b031681526020018660ff16815260200185815260200184151581526020018360038111156103f357fe5b610247600480360360408110156109f857600080fd5b81359190810190604081016020820135600160201b811115610a1957600080fd5b820183602082011115610a2b57600080fd5b803590602001918460018302840111600160201b83111715610a4c57600080fd5b91908080601f016020809104026020016040519081016040528093929190818152602001838380828437600092019190915250929550612079945050505050565b6102d660048036036020811015610aa357600080fd5b50356001600160a01b03166123ef565b61029860048036036020811015610ac957600080fd5b5035612755565b61029861276c565b61024760048036036020811015610aee57600080fd5b503560ff16612790565b6102d660048036036040811015610b0e57600080fd5b50803590602001356001600160a01b031661294d565b61066460048036036020811015610b3a57600080fd5b50356129a6565b61029860048036036020811015610b5757600080fd5b50356001600160a01b03166129d0565b61024760048036036040811015610b7d57600080fd5b50803590602001356129e2565b610664612c1d565b6001600160a01b03166000908152606560209081526040808320548352606b90915290206005015460ff1690565b6000610bda6000805160206131e5833981519152336119be565b610c1b576040805162461bcd60e51b815260206004820152600d60248201526c1858d8d95cdcc819195b9a5959609a1b604482015290519081900360640190fd5b506068805460ff8316600160b01b0260ff60b01b199091161790556001919050565b60009081526033602052604090206002015490565b600082815260336020526040902060020154610c7590610c70612c2c565b6119be565b610cb05760405162461bcd60e51b815260040180806020018281038252602f815260200180613158602f913960400191505060405180910390fd5b610cba8282612c30565b5050565b6000610cca81336119be565b610d0b576040805162461bcd60e51b815260206004820152600d60248201526c1858d8d95cdcc819195b9a5959609a1b604482015290519081900360640190fd5b600082905060006001600160a01b0316816001600160a01b0316630a0f81686040518163ffffffff1660e01b815260040160206040518083038186803b158015610d5457600080fd5b505afa158015610d68573d6000803e3d6000fd5b505050506040513d6020811015610d7e57600080fd5b50516001600160a01b03161415610dc6576040805162461bcd60e51b81526020600482015260076024820152661a5b9d985b1a5960ca1b604482015290519081900360640190fd5b606880546001600160a01b0319166001600160a01b0392909216919091179055506001919050565b610df6612c2c565b6001600160a01b0316816001600160a01b031614610e455760405162461bcd60e51b815260040180806020018281038252602f815260200180613205602f913960400191505060405180910390fd5b610cba8282612c99565b60675490565b6000610e6f6000805160206131e5833981519152336119be565b610eb0576040805162461bcd60e51b815260206004820152600d60248201526c1858d8d95cdcc819195b9a5959609a1b604482015290519081900360640190fd5b506068805460ff838116600160a81b0260ff60a81b19918616600160a01b0260ff60a01b19909316929092171617905560015b92915050565b60685460009060ff600160b01b909104811690831610610f44576040805162461bcd60e51b8152602060048201526011602482015270706963206f7574206f6620626f756e647360781b604482015290519081900360640190fd5b6000838152606b60205260409020600581015460ff16610f98576040805162461bcd60e51b815260206004820152600a6024820152691a5b9d985b1a59081a5960b21b604482015290519081900360640190fd5b60018101546001600160a01b03163314610fe9576040805162461bcd60e51b815260206004820152600d60248201526c1858d8d95cdcc819195b9a5959609a1b604482015290519081900360640190fd5b60038101805460ff60401b1916600160401b60ff868116820292909217928390556001808501546004860154604080518b81526001600160a01b03909316602084018190526001600160401b03881660608501819052959097049095166080830181905260a0830182905260c09583018681526002808a018054610100978116159790970260001901909616049684018790527f69e29765eee9ce41e5c9e024d867f612cb1a6690a5c5f905201d4c591c423f1e978c97909694929392919060e0830190879080156110fc5780601f106110d1576101008083540402835291602001916110fc565b820191906000526020600020905b8154815290600101906020018083116110df57829003601f168201915b505097505050505050505060405180910390a15060019392505050565b6000806060600080600080600061112f89610b92565b611173576040805162461bcd60e51b815260206004820152601060248201526f1b9bc81c1c9bd99a5b1948199bdd5b9960821b604482015290519081900360640190fd5b61117b613051565b6001600160a01b038a81166000908152606560209081526040808320548352606b825291829020825161010080820185528254825260018084015490961682850152600280840180548751988116159093026000190190921604601f81018590048502870185018652808752919592948601939091908301828280156112425780601f1061121757610100808354040283529160200191611242565b820191906000526020600020905b81548152906001019060200180831161122557829003601f168201915b50505091835250506003828101546001600160401b038116602084015260ff600160401b909104811660408401526004840154606084015260058401548082161515608085015260a0909301926101009004169081111561129f57fe5b60038111156112aa57fe5b90525080516020808301516040808501516060860151608087015160a08801516000888152606c909752939095205460e090970151959f50929d509b509099509097509550909350915050919395975091939597565b600061132c7f074d40a305a8a90af8f1a910f983406ed04849c36b2bc8143f091437b95cbb12336119be565b61136d576040805162461bcd60e51b815260206004820152600d60248201526c1858d8d95cdcc819195b9a5959609a1b604482015290519081900360640190fd5b61137683610b92565b6113ba576040805162461bcd60e51b815260206004820152601060248201526f1b9bc81c1c9bd99a5b1948199bdd5b9960821b604482015290519081900360640190fd5b6113c2613051565b6001600160a01b038481166000908152606560209081526040808320548352606b825291829020825161010080820185528254825260018084015490961682850152600280840180548751988116159093026000190190921604601f81018590048502870185018652808752919592948601939091908301828280156114895780601f1061145e57610100808354040283529160200191611489565b820191906000526020600020905b81548152906001019060200180831161146c57829003601f168201915b50505091835250506003828101546001600160401b038116602084015260ff600160401b909104811660408401526004840154606084015260058401548082161515608085015260a090930192610100900416908111156114e657fe5b60038111156114f157fe5b905250516000908152606c60205260409020805484019055506001905092915050565b600061152e6000805160206131e5833981519152336119be565b61156f576040805162461bcd60e51b815260206004820152600d60248201526c1858d8d95cdcc819195b9a5959609a1b604482015290519081900360640190fd5b50606955600190565b6000611582613051565b336000908152606560209081526040808320548352606b82529182902082516101008082018552825482526001808401546001600160a01b031683860152600280850180548851938116159094026000190190931604601f8101869004860282018601875280825292959394938601939092908301828280156116465780601f1061161b57610100808354040283529160200191611646565b820191906000526020600020905b81548152906001019060200180831161162957829003601f168201915b50505091835250506003828101546001600160401b038116602084015260ff600160401b909104811660408401526004840154606084015260058401548082161515608085015260a090930192610100900416908111156116a357fe5b60038111156116ae57fe5b90525090506116bc83610b92565b80156116d7575060008160e0015160038111156116d557fe5b145b801561175a5750606954606a54604080516370a0823160e01b815233600482015290516001600160a01b03909216916370a0823191602480820192602092909190829003018186803b15801561172c57600080fd5b505afa158015611740573d6000803e3d6000fd5b505050506040513d602081101561175657600080fd5b5051115b9392505050565b6000805160206131e583398151915281565b6000806060600080600080611787886119d6565b6117c9576040805162461bcd60e51b815260206004820152600e60248201526d1b985b59481b9bdd08199bdd5b9960921b604482015290519081900360640190fd5b6117d1613051565b606b600060668b6040518082805190602001908083835b602083106118075780518252601f1990920191602091820191016117e8565b518151600019602094850361010090810a82019283169219939093169190911790925294909201968752604080519788900382019097205488528781019890985295850160002085518084018752815481526001828101546001600160a01b0316828b0152600280840180548a51601f94821615909802909b01909a16049081018a90048a0285018a018852808552909891979689019693955092935084019050828280156118f75780601f106118cc576101008083540402835291602001916118f7565b820191906000526020600020905b8154815290600101906020018083116118da57829003601f168201915b50505091835250506003828101546001600160401b038116602084015260ff600160401b909104811660408401526004840154606084015260058401548082161515608085015260a0909301926101009004169081111561195457fe5b600381111561195f57fe5b90525080516020808301516040808501516060860151608087015160a0909701516000878152606c9096529290942054949f929e509c50919a509298509650945092505050565b600082815260336020526040812061175a9083612d02565b600082815260336020526040812061175a9083612d0e565b6000806066836040518082805190602001908083835b60208310611a0b5780518252601f1990920191602091820191016119ec565b51815160209384036101000a600019018019909216911617905292019485525060405193849003019092205492909211949350505050565b606c6020526000908152604090205481565b6000611a60826119d6565b611aa2576040805162461bcd60e51b815260206004820152600e60248201526d1b985b59481b9bdd08199bdd5b9960921b604482015290519081900360640190fd5b60676066836040518082805190602001908083835b60208310611ad65780518252601f199092019160209182019101611ab7565b51815160209384036101000a6000190180199092169116179052920194855250604051938490030190922054835490925082109050611b1157fe5b6000918252602090912001546001600160a01b031692915050565b60695481565b600081565b6068546001600160a01b031681565b6000611b5133610b92565b15611b9c576040805162461bcd60e51b815260206004820152601660248201527570726f66696c6520616c72656164792065786973747360501b604482015290519081900360640190fd5b611ba5836119d6565b15611bec576040805162461bcd60e51b81526020600482015260126024820152713730b6b29030b63932b0b23c903a30b5b2b760711b604482015290519081900360640190fd5b6068548351600160a01b90910460ff161115611c40576040805162461bcd60e51b815260206004820152600e60248201526d1b985b59481d1bdbc81cda1bdc9d60921b604482015290519081900360640190fd5b6068548351600160a81b90910460ff161015611c93576040805162461bcd60e51b815260206004820152600d60248201526c6e616d6520746f6f206c6f6e6760981b604482015290519081900360640190fd5b60678054600181019091557f9787eeb91fe3101235e4a76063c7023ecb40f923f97916639c598592fa30d6ae810180546001600160a01b03191633908117909155600090815260656020908152604091829020839055905185518392606692889290918291908401908083835b60208310611d1f5780518252601f199092019160209182019101611d00565b51815160209384036101000a600019018019909216911617905292019485525060405193849003019092209290925550611d599050613051565b60408051610100810182528381523360208201529081018690526001600160401b034216606082015260ff85166080820152600060a08201819052600160c083015260e08201526000838152606b602090815260409182902083518155838201516001820180546001600160a01b0319166001600160a01b039092169190911790559183015180519394508493611df69260028501920190613094565b50606082015160038083018054608086015160ff16600160401b0260ff60401b196001600160401b0390951667ffffffffffffffff1990921691909117939093169290921790915560a0830151600483015560c083015160058301805491151560ff199092169190911780825560e08501519261ff001990911690610100908490811115611e8057fe5b02179055509050507f72a68484472f11fcd73602564e346c18c3d22b4869842397c7347330035c8a3882826020015183604001518460600151856080015160405180868152602001856001600160a01b0316815260200180602001846001600160401b031681526020018360ff168152602001828103825285818151815260200191508051906020019080838360005b83811015611f28578181015183820152602001611f10565b50505050905090810190601f168015611f555780820380516001836020036101000a031916815260200191505b50965050505050505060405180910390a1506001949350505050565b805160208183018101805160668252928201919093012091525481565b606b6020908152600091825260409182902080546001808301546002808501805488516101009582161595909502600019011691909104601f810187900487028401870190975286835292956001600160a01b039091169491929183018282801561203a5780601f1061200f5761010080835404028352916020019161203a565b820191906000526020600020905b81548152906001019060200180831161201d57829003601f168201915b5050506003840154600485015460059095015493946001600160401b0382169460ff600160401b90930483169450909250808216916101009091041688565b60006120936000805160206131e5833981519152336119be565b6120d4576040805162461bcd60e51b815260206004820152600d60248201526c1858d8d95cdcc819195b9a5959609a1b604482015290519081900360640190fd5b6120dd826119d6565b15612124576040805162461bcd60e51b81526020600482015260126024820152713730b6b29030b63932b0b23c903a30b5b2b760711b604482015290519081900360640190fd5b6068548251600160a01b90910460ff161115612178576040805162461bcd60e51b815260206004820152600e60248201526d1b985b59481d1bdbc81cda1bdc9d60921b604482015290519081900360640190fd5b6068548251600160a81b90910460ff1610156121cb576040805162461bcd60e51b815260206004820152600d60248201526c6e616d6520746f6f206c6f6e6760981b604482015290519081900360640190fd5b6000838152606b60205260409020600581015460ff1661221f576040805162461bcd60e51b815260206004820152600a6024820152691a5b9d985b1a59081a5960b21b604482015290519081900360640190fd5b836066846040518082805190602001908083835b602083106122525780518252601f199092019160209182019101612233565b6001836020036101000a03801982511681845116808217855250505050505090500191505090815260200160405180910390208190555060668160020160405180828054600181600116156101000203166002900480156122ea5780601f106122c85761010080835404028352918201916122ea565b820191906000526020600020905b8154815290600101906020018083116122d6575b505091505090815260200160405180910390206000905582816002019080519060200190612319929190613094565b5060018181015460038301546004840154604080518981526001600160a01b03909416602085018190526001600160401b03841660608601819052600160401b90940460ff166080860181905260a0860184905260c09286018381526002808a0180546101009a8116159a909a0260001901909916049387018490527f69e29765eee9ce41e5c9e024d867f612cb1a6690a5c5f905201d4c591c423f1e978c979396909590949293909290919060e0830190879080156110fc5780601f106110d1576101008083540402835291602001916110fc565b600054610100900460ff16806124085750612408612d23565b80612416575060005460ff16155b6124515760405162461bcd60e51b815260040180806020018281038252602e8152602001806131b7602e913960400191505060405180910390fd5b600054610100900460ff1615801561247c576000805460ff1961ff0019909116610100171660011790555b612484612d34565b61248f600033610cb0565b6124a76000805160206131e583398151915233610c52565b6068805460ff60a01b1916600360a01b1760ff60a81b1916600160ac1b1760ff60b01b1916600f60b01b179055606a80546001600160a01b03199081166001600160a01b0385161790915560678054600181019091557f9787eeb91fe3101235e4a76063c7023ecb40f923f97916639c598592fa30d6ae0180549091169055600080805260656020527fffdfc1249c027f9191656349feb0761381bb32c9f557e01f419fd08754bf5a1b819055604080516339b2b63360e11b815260666004820152905160249181900391909101902055612580613051565b6040518061010001604052806000815260200160006001600160a01b031681526020016040518060400160405280600481526020016339b2b63360e11b8152508152602001426001600160401b03168152602001600060ff16815260200160008152602001600015158152602001600060038111156125fb57fe5b905260008052606b602090815281517fc8cc8bda7ad4886bea3ebbdafa02e79d37c39bf4011696b26a31a0802fd9458b908155828201517fc8cc8bda7ad4886bea3ebbdafa02e79d37c39bf4011696b26a31a0802fd9458c80546001600160a01b0319166001600160a01b0390921691909117905560408301518051939450849391926126ad927fc8cc8bda7ad4886bea3ebbdafa02e79d37c39bf4011696b26a31a0802fd9458d9290910190613094565b50606082015160038083018054608086015160ff16600160401b0260ff60401b196001600160401b0390951667ffffffffffffffff1990921691909117939093169290921790915560a0830151600483015560c083015160058301805491151560ff199092169190911780825560e08501519261ff00199091169061010090849081111561273757fe5b0217905550905050508015610cba576000805461ff00191690555050565b6000818152603360205260408120610ee390612de6565b7f074d40a305a8a90af8f1a910f983406ed04849c36b2bc8143f091437b95cbb1281565b600061279b33610b92565b6127e1576040805162461bcd60e51b81526020600482015260126024820152711c1c9bd99a5b19481b5d5cdd08195e1a5cdd60721b604482015290519081900360640190fd5b336000908152606560209081526040808320548352606b9091528120906005820154610100900460ff16600381111561281657fe5b14612861576040805162461bcd60e51b8152602060048201526016602482015275141c9bd9995cdcda5bdb88185b1c9958591e481cd95d60521b604482015290519081900360640190fd5b606954606a54604080516370a0823160e01b815233600482015290516001600160a01b03909216916370a0823191602480820192602092909190829003018186803b1580156128af57600080fd5b505afa1580156128c3573d6000803e3d6000fd5b505050506040513d60208110156128d957600080fd5b505111612922576040805162461bcd60e51b81526020600482015260126024820152714e6f7420656e6f7567682062616c616e636560701b604482015290519081900360640190fd5b60058101805484919061ff00191661010083600381111561293f57fe5b021790555060019392505050565b60008281526033602052604090206002015461296b90610c70612c2c565b610e455760405162461bcd60e51b81526004018080602001828103825260308152602001806131876030913960400191505060405180910390fd5b606781815481106129b657600080fd5b6000918252602090912001546001600160a01b0316905081565b60656020526000908152604090205481565b6000828152606b60205260408120600581015460ff16612a36576040805162461bcd60e51b815260206004820152600a6024820152691a5b9d985b1a59081a5960b21b604482015290519081900360640190fd5b60018101546001600160a01b03163314612a87576040805162461bcd60e51b815260206004820152600d60248201526c1858d8d95cdcc819195b9a5959609a1b604482015290519081900360640190fd5b60685460408051632a952fab60e21b815260048101869052905133926001600160a01b03169163aa54beac916024808301926020929190829003018186803b158015612ad257600080fd5b505afa158015612ae6573d6000803e3d6000fd5b505050506040513d6020811015612afc57600080fd5b50516001600160a01b031614612b49576040805162461bcd60e51b815260206004820152600d60248201526c34b73b30b634b21037bbb732b960991b604482015290519081900360640190fd5b600481018390556001808201546003830154604080518881526001600160a01b03909316602084018190526001600160401b03831660608501819052600160401b90930460ff166080850181905260a0850189905260c092850183815260028089018054610100998116159990990260001901909816049386018490527f69e29765eee9ce41e5c9e024d867f612cb1a6690a5c5f905201d4c591c423f1e968b969395909490938b92909160e0830190879080156110fc5780601f106110d1576101008083540402835291602001916110fc565b606a546001600160a01b031681565b3390565b6000828152603360205260409020612c489082612df1565b15610cba57612c55612c2c565b6001600160a01b0316816001600160a01b0316837f2f8788117e7eff1d82e926ec794901d17c78024a50270940304540a733656f0d60405160405180910390a45050565b6000828152603360205260409020612cb19082612e06565b15610cba57612cbe612c2c565b6001600160a01b0316816001600160a01b0316837ff6391f5c32d9c69d2a47ea670b442974b53935d1edc7fd64eb21e047a839171b60405160405180910390a45050565b600061175a8383612e1b565b600061175a836001600160a01b038416612e7f565b6000612d2e30612e97565b15905090565b600054610100900460ff1680612d4d5750612d4d612d23565b80612d5b575060005460ff16155b612d965760405162461bcd60e51b815260040180806020018281038252602e8152602001806131b7602e913960400191505060405180910390fd5b600054610100900460ff16158015612dc1576000805460ff1961ff0019909116610100171660011790555b612dc9612e9d565b612dd1612e9d565b8015612de3576000805461ff00191690555b50565b6000610ee382612f3d565b600061175a836001600160a01b038416612f41565b600061175a836001600160a01b038416612f8b565b81546000908210612e5d5760405162461bcd60e51b81526004018080602001828103825260228152602001806131366022913960400191505060405180910390fd5b826000018281548110612e6c57fe5b9060005260206000200154905092915050565b60009081526001919091016020526040902054151590565b3b151590565b600054610100900460ff1680612eb65750612eb6612d23565b80612ec4575060005460ff16155b612eff5760405162461bcd60e51b815260040180806020018281038252602e8152602001806131b7602e913960400191505060405180910390fd5b600054610100900460ff16158015612dd1576000805460ff1961ff0019909116610100171660011790558015612de3576000805461ff001916905550565b5490565b6000612f4d8383612e7f565b612f8357508154600181810184556000848152602080822090930184905584548482528286019093526040902091909155610ee3565b506000610ee3565b600081815260018301602052604081205480156130475783546000198083019190810190600090879083908110612fbe57fe5b9060005260206000200154905080876000018481548110612fdb57fe5b60009182526020808320909101929092558281526001898101909252604090209084019055865487908061300b57fe5b60019003818190600052602060002001600090559055866001016000878152602001908152602001600020600090556001945050505050610ee3565b6000915050610ee3565b604080516101008101825260008082526020820181905260609282018390529181018290526080810182905260a0810182905260c081018290529060e082015290565b828054600181600116156101000203166002900490600052602060002090601f0160209004810192826130ca5760008555613110565b82601f106130e357805160ff1916838001178555613110565b82800160010185558215613110579182015b828111156131105782518255916020019190600101906130f5565b5061311c929150613120565b5090565b5b8082111561311c576000815560010161312156fe456e756d657261626c655365743a20696e646578206f7574206f6620626f756e6473416363657373436f6e74726f6c3a2073656e646572206d75737420626520616e2061646d696e20746f206772616e74416363657373436f6e74726f6c3a2073656e646572206d75737420626520616e2061646d696e20746f207265766f6b65496e697469616c697a61626c653a20636f6e747261637420697320616c726561647920696e697469616c697a656471f3d55856e4058ed06ee057d79ada615f65cdf5f9ee88181b914225088f834f416363657373436f6e74726f6c3a2063616e206f6e6c792072656e6f756e636520726f6c657320666f722073656c66a26469706673582212200708fe9a13b4918d03c42713d49ed32152ef494c7b0f5484ce9a0bdabb37452864736f6c63430007050033",
  "immutableReferences": {},
  "source": "pragma solidity 0.7.5;\r\n\r\nimport '@openzeppelin/contracts-upgradeable/access/AccessControlUpgradeable.sol';\r\nimport '@openzeppelin/contracts/token/ERC20/IERC20.sol';\r\nimport './HeroCore.sol';\r\n\r\ncontract Profiles is AccessControlUpgradeable {\r\n  mapping(address => uint256) public addressToIndex;\r\n  mapping(string => uint256) public nameToIndex;\r\n  address[] public addresses;\r\n\r\n  HeroCore public heroesNftContract;\r\n\r\n  uint8 minLength;\r\n  uint8 maxLength;\r\n  uint8 maxPic;\r\n  uint256 public requireBalanceProfession;\r\n  address public governanceToken;\r\n\r\n  enum Profession {\r\n    UNKNOWN,\r\n    OPENER,\r\n    SUPPLIER,\r\n    BLACKSMITH\r\n  }\r\n\r\n  // The profile struct.\r\n  struct Profile {\r\n    // The id.\r\n    uint256 id;\r\n    // The address of the profile.\r\n    address owner;\r\n    // The name of the profile.\r\n    string name;\r\n    // When the profile was created.\r\n    uint64 created;\r\n    // The profile picture id.\r\n    uint8 picId;\r\n    // The profile picture hero id.\r\n    uint256 heroId;\r\n    // If this is a real profile or not.\r\n    bool set;\r\n    Profession profession;\r\n  }\r\n\r\n  mapping(uint256 => Profile) public profiles;\r\n\r\n  mapping(uint256 => uint256) public points;\r\n\r\n  bytes32 public constant MODERATOR_ROLE = keccak256('MODERATOR_ROLE');\r\n  bytes32 public constant POINTS_ROLE = keccak256('POINTS_ROLE');\r\n\r\n  event ProfileCreated(\r\n    uint256 profileId,\r\n    address owner,\r\n    string name,\r\n    uint64 created,\r\n    uint8 picId\r\n  );\r\n  event ProfileUpdated(\r\n    uint256 profileId,\r\n    address owner,\r\n    string name,\r\n    uint64 created,\r\n    uint8 picId,\r\n    uint256 heroId\r\n  );\r\n\r\n  function initialize(address _govToken) public initializer {\r\n    __AccessControl_init();\r\n\r\n    _setupRole(DEFAULT_ADMIN_ROLE, msg.sender);\r\n    grantRole(MODERATOR_ROLE, msg.sender);\r\n\r\n    minLength = 3;\r\n    maxLength = 16;\r\n    maxPic = 15;\r\n    governanceToken = _govToken;\r\n\r\n    addresses.push(address(0));\r\n    addressToIndex[address(0)] = 0;\r\n    nameToIndex['self'] = 0;\r\n\r\n    Profile memory profile = Profile(\r\n      0,\r\n      address(0),\r\n      'self',\r\n      uint64(block.timestamp),\r\n      0,\r\n      0,\r\n      false,\r\n      Profession.UNKNOWN\r\n    );\r\n\r\n    profiles[0] = profile;\r\n  }\r\n\r\n  /// @dev Checks if a profile exists for an address.\r\n  function profileExists(address profileAddress)\r\n    public\r\n    view\r\n    returns (bool exists)\r\n  {\r\n    Profile storage profile = profiles[addressToIndex[profileAddress]];\r\n    return profile.set;\r\n  }\r\n\r\n  /// @dev Checks if a name is taken.\r\n  function nameTaken(string memory name) public view returns (bool taken) {\r\n    return (nameToIndex[name] > 0);\r\n  }\r\n\r\n  /// @dev Creates a Profile.\r\n  function createProfile(string memory _name, uint8 _picId)\r\n    public\r\n    returns (bool success)\r\n  {\r\n    require(!profileExists(msg.sender), 'profile already exists');\r\n    require(!nameTaken(_name), 'name already taken');\r\n    // Enforce maximum length.\r\n    require(bytes(_name).length >= minLength, 'name too short');\r\n    require(bytes(_name).length <= maxLength, 'name too long');\r\n\r\n    uint256 profileId = addresses.length;\r\n\r\n    addresses.push(msg.sender);\r\n    addressToIndex[msg.sender] = profileId;\r\n    nameToIndex[_name] = profileId;\r\n\r\n    Profile memory profile = Profile(\r\n      profileId,\r\n      msg.sender,\r\n      _name,\r\n      uint64(block.timestamp),\r\n      _picId,\r\n      0,\r\n      true,\r\n      Profession.UNKNOWN\r\n    );\r\n\r\n    profiles[profileId] = profile;\r\n\r\n    emit ProfileCreated(\r\n      profileId,\r\n      profile.owner,\r\n      profile.name,\r\n      profile.created,\r\n      profile.picId\r\n    );\r\n\r\n    return true;\r\n  }\r\n\r\n  function setProfession(Profession _profession) public returns (bool success) {\r\n    require(profileExists(msg.sender), 'profile must exist');\r\n    Profile storage profile = profiles[addressToIndex[msg.sender]];\r\n    require(profile.profession == Profession.UNKNOWN, 'Profession already set');\r\n    require(\r\n      IERC20(governanceToken).balanceOf(msg.sender) > requireBalanceProfession,\r\n      'Not enough balance'\r\n    );\r\n    profile.profession = _profession;\r\n    return true;\r\n  }\r\n\r\n  function setRequireBalanceProfession(uint256 _value) public returns (bool) {\r\n    require(hasRole(MODERATOR_ROLE, msg.sender), 'access denied');\r\n    requireBalanceProfession = _value;\r\n    return true;\r\n  }\r\n\r\n  /// @dev Sets the heroes NFT contract.\r\n  function setHeroes(address _address) public returns (bool success) {\r\n    require(hasRole(DEFAULT_ADMIN_ROLE, msg.sender), 'access denied');\r\n    HeroCore candidateContract = HeroCore(_address);\r\n\r\n    // Verify that it is an actual contract.\r\n    require(candidateContract.ceoAddress() != address(0), 'invalid');\r\n\r\n    // Set it.\r\n    heroesNftContract = candidateContract;\r\n    return true;\r\n  }\r\n\r\n  /// @dev Sets the min and max lengths for names.\r\n  function setNameLengths(uint8 _min, uint8 _max)\r\n    public\r\n    returns (bool success)\r\n  {\r\n    require(hasRole(MODERATOR_ROLE, msg.sender), 'access denied');\r\n    minLength = _min;\r\n    maxLength = _max;\r\n    return true;\r\n  }\r\n\r\n  /// @dev Sets the max pic id.\r\n  function setPicMax(uint8 _max) public returns (bool success) {\r\n    require(hasRole(MODERATOR_ROLE, msg.sender), 'access denied');\r\n    maxPic = _max;\r\n    return true;\r\n  }\r\n\r\n  /// @dev Changes the name for a profile.\r\n  function changeName(uint256 profileId, string memory _name)\r\n    public\r\n    returns (bool success)\r\n  {\r\n    require(hasRole(MODERATOR_ROLE, msg.sender), 'access denied');\r\n    require(!nameTaken(_name), 'name already taken');\r\n    // Enforce length.\r\n    require(bytes(_name).length >= minLength, 'name too short');\r\n    require(bytes(_name).length <= maxLength, 'name too long');\r\n\r\n    Profile storage profile = profiles[profileId];\r\n    require(profile.set, 'invalid id');\r\n\r\n    // Set the new name.\r\n    nameToIndex[_name] = profileId;\r\n\r\n    // Remove the old name.\r\n    delete nameToIndex[profile.name];\r\n\r\n    profile.name = _name;\r\n\r\n    emit ProfileUpdated(\r\n      profileId,\r\n      profile.owner,\r\n      profile.name,\r\n      profile.created,\r\n      profile.picId,\r\n      profile.heroId\r\n    );\r\n\r\n    return true;\r\n  }\r\n\r\n  /// @dev Changes the pic for a profile.\r\n  function changePic(uint256 profileId, uint8 _picId)\r\n    public\r\n    returns (bool success)\r\n  {\r\n    // Enforce bounds.\r\n    require(_picId < maxPic, 'pic out of bounds');\r\n\r\n    // Make sure it's a valid profile.\r\n    Profile storage profile = profiles[profileId];\r\n    require(profile.set, 'invalid id');\r\n\r\n    // Make sure they own the profile.\r\n    require(profile.owner == msg.sender, 'access denied');\r\n\r\n    profile.picId = _picId;\r\n\r\n    emit ProfileUpdated(\r\n      profileId,\r\n      profile.owner,\r\n      profile.name,\r\n      profile.created,\r\n      profile.picId,\r\n      profile.heroId\r\n    );\r\n\r\n    return true;\r\n  }\r\n\r\n  /// @dev Changes the hero pic for a profile.\r\n  function changeHeroPic(uint256 profileId, uint256 _heroId)\r\n    public\r\n    returns (bool success)\r\n  {\r\n    // Make sure it's a valid profile.\r\n    Profile storage profile = profiles[profileId];\r\n    require(profile.set, 'invalid id');\r\n\r\n    // Make sure they own the profile.\r\n    require(profile.owner == msg.sender, 'access denied');\r\n\r\n    // Make sure they own the hero.\r\n    require(\r\n      heroesNftContract.heroIndexToOwner(_heroId) == msg.sender,\r\n      'invalid owner'\r\n    );\r\n\r\n    profile.heroId = _heroId;\r\n\r\n    emit ProfileUpdated(\r\n      profileId,\r\n      profile.owner,\r\n      profile.name,\r\n      profile.created,\r\n      profile.picId,\r\n      profile.heroId\r\n    );\r\n\r\n    return true;\r\n  }\r\n\r\n  /// @dev Gets the total number of profiles.\r\n  function getProfileCount() public view returns (uint256 count) {\r\n    return addresses.length;\r\n  }\r\n\r\n  /// @dev Gets a profile by address.\r\n  function getProfileByAddress(address profileAddress)\r\n    public\r\n    view\r\n    returns (\r\n      uint256 _id,\r\n      address _owner,\r\n      string memory _name,\r\n      uint64 _created,\r\n      uint8 _picId,\r\n      uint256 _heroId,\r\n      uint256 _points,\r\n      Profession _profession\r\n    )\r\n  {\r\n    require(profileExists(profileAddress), 'no profile found');\r\n    Profile memory profile = profiles[addressToIndex[profileAddress]];\r\n    return (\r\n      profile.id,\r\n      profile.owner,\r\n      profile.name,\r\n      profile.created,\r\n      profile.picId,\r\n      profile.heroId,\r\n      points[profile.id],\r\n      profile.profession\r\n    );\r\n  }\r\n\r\n  /// @dev Gets the Profile by name.\r\n  function getProfileByName(string memory name)\r\n    public\r\n    view\r\n    returns (\r\n      uint256 _id,\r\n      address _owner,\r\n      string memory _name,\r\n      uint64 _created,\r\n      uint8 _picId,\r\n      uint256 _heroId,\r\n      uint256 _points\r\n    )\r\n  {\r\n    require(nameTaken(name), 'name not found');\r\n    Profile memory profile = profiles[nameToIndex[name]];\r\n    return (\r\n      profile.id,\r\n      profile.owner,\r\n      profile.name,\r\n      profile.created,\r\n      profile.picId,\r\n      profile.heroId,\r\n      points[profile.id]\r\n    );\r\n  }\r\n\r\n  /// @dev Gets the address of a name.\r\n  function getAddressByName(string memory name)\r\n    public\r\n    view\r\n    returns (address profileAddress)\r\n  {\r\n    require(nameTaken(name), 'name not found');\r\n    return addresses[nameToIndex[name]];\r\n  }\r\n\r\n  function canSetProfession(address account) public view returns (bool) {\r\n    Profile memory profile = profiles[addressToIndex[msg.sender]];\r\n\r\n    return\r\n      profileExists(account) &&\r\n      profile.profession == Profession.UNKNOWN &&\r\n      IERC20(governanceToken).balanceOf(msg.sender) > requireBalanceProfession;\r\n  }\r\n\r\n  /// @dev Adds points to a profile.\r\n  function addPoints(address _address, uint256 _points)\r\n    public\r\n    returns (bool success)\r\n  {\r\n    require(hasRole(POINTS_ROLE, msg.sender), 'access denied');\r\n    require(profileExists(_address), 'no profile found');\r\n    Profile memory profile = profiles[addressToIndex[_address]];\r\n    points[profile.id] += _points;\r\n    return true;\r\n  }\r\n}\r\n",
  "sourcePath": "D:\\Work\\open-world\\contracts\\Profile.sol",
  "compiler": {
    "name": "solc",
    "version": "0.7.5+commit.eb77ed08.Emscripten.clang"
  },
  "schemaVersion": "3.4.7",
  "updatedAt": "2022-04-28T14:19:01.636Z",
  "devdoc": {
    "kind": "dev",
    "methods": {
      "addPoints(address,uint256)": {
        "details": "Adds points to a profile."
      },
      "changeHeroPic(uint256,uint256)": {
        "details": "Changes the hero pic for a profile."
      },
      "changeName(uint256,string)": {
        "details": "Changes the name for a profile."
      },
      "changePic(uint256,uint8)": {
        "details": "Changes the pic for a profile."
      },
      "createProfile(string,uint8)": {
        "details": "Creates a Profile."
      },
      "getAddressByName(string)": {
        "details": "Gets the address of a name."
      },
      "getProfileByAddress(address)": {
        "details": "Gets a profile by address."
      },
      "getProfileByName(string)": {
        "details": "Gets the Profile by name."
      },
      "getProfileCount()": {
        "details": "Gets the total number of profiles."
      },
      "getRoleAdmin(bytes32)": {
        "details": "Returns the admin role that controls `role`. See {grantRole} and {revokeRole}. To change a role's admin, use {_setRoleAdmin}."
      },
      "getRoleMember(bytes32,uint256)": {
        "details": "Returns one of the accounts that have `role`. `index` must be a value between 0 and {getRoleMemberCount}, non-inclusive. Role bearers are not sorted in any particular way, and their ordering may change at any point. WARNING: When using {getRoleMember} and {getRoleMemberCount}, make sure you perform all queries on the same block. See the following https://forum.openzeppelin.com/t/iterating-over-elements-on-enumerableset-in-openzeppelin-contracts/2296[forum post] for more information."
      },
      "getRoleMemberCount(bytes32)": {
        "details": "Returns the number of accounts that have `role`. Can be used together with {getRoleMember} to enumerate all bearers of a role."
      },
      "grantRole(bytes32,address)": {
        "details": "Grants `role` to `account`. If `account` had not been already granted `role`, emits a {RoleGranted} event. Requirements: - the caller must have ``role``'s admin role."
      },
      "hasRole(bytes32,address)": {
        "details": "Returns `true` if `account` has been granted `role`."
      },
      "nameTaken(string)": {
        "details": "Checks if a name is taken."
      },
      "profileExists(address)": {
        "details": "Checks if a profile exists for an address."
      },
      "renounceRole(bytes32,address)": {
        "details": "Revokes `role` from the calling account. Roles are often managed via {grantRole} and {revokeRole}: this function's purpose is to provide a mechanism for accounts to lose their privileges if they are compromised (such as when a trusted device is misplaced). If the calling account had been granted `role`, emits a {RoleRevoked} event. Requirements: - the caller must be `account`."
      },
      "revokeRole(bytes32,address)": {
        "details": "Revokes `role` from `account`. If `account` had been granted `role`, emits a {RoleRevoked} event. Requirements: - the caller must have ``role``'s admin role."
      },
      "setHeroes(address)": {
        "details": "Sets the heroes NFT contract."
      },
      "setNameLengths(uint8,uint8)": {
        "details": "Sets the min and max lengths for names."
      },
      "setPicMax(uint8)": {
        "details": "Sets the max pic id."
      }
    },
    "version": 1
  },
  "userdoc": {
    "kind": "user",
    "methods": {},
    "version": 1
  }
}