{
  "contractName": "xBlade",
  "abi": [
    {
      "anonymous": false,
      "inputs": [
        {
          "indexed": false,
          "internalType": "address",
          "name": "sellAddress",
          "type": "address"
        }
      ],
      "name": "AddSellAddress",
      "type": "event"
    },
    {
      "anonymous": false,
      "inputs": [
        {
          "indexed": true,
          "internalType": "address",
          "name": "owner",
          "type": "address"
        },
        {
          "indexed": true,
          "internalType": "address",
          "name": "spender",
          "type": "address"
        },
        {
          "indexed": false,
          "internalType": "uint256",
          "name": "value",
          "type": "uint256"
        }
      ],
      "name": "Approval",
      "type": "event"
    },
    {
      "anonymous": false,
      "inputs": [
        {
          "indexed": true,
          "internalType": "address",
          "name": "blackListed",
          "type": "address"
        },
        {
          "indexed": false,
          "internalType": "bool",
          "name": "value",
          "type": "bool"
        }
      ],
      "name": "Blacklist",
      "type": "event"
    },
    {
      "anonymous": false,
      "inputs": [
        {
          "indexed": true,
          "internalType": "address",
          "name": "burner",
          "type": "address"
        },
        {
          "indexed": false,
          "internalType": "uint256",
          "name": "value",
          "type": "uint256"
        }
      ],
      "name": "Burn",
      "type": "event"
    },
    {
      "anonymous": false,
      "inputs": [
        {
          "indexed": true,
          "internalType": "address",
          "name": "from",
          "type": "address"
        },
        {
          "indexed": true,
          "internalType": "address",
          "name": "to",
          "type": "address"
        },
        {
          "indexed": false,
          "internalType": "uint256",
          "name": "value",
          "type": "uint256"
        }
      ],
      "name": "Mint",
      "type": "event"
    },
    {
      "anonymous": false,
      "inputs": [
        {
          "indexed": true,
          "internalType": "address",
          "name": "previousOwner",
          "type": "address"
        },
        {
          "indexed": true,
          "internalType": "address",
          "name": "newOwner",
          "type": "address"
        }
      ],
      "name": "OwnershipTransferred",
      "type": "event"
    },
    {
      "anonymous": false,
      "inputs": [
        {
          "indexed": false,
          "internalType": "address",
          "name": "account",
          "type": "address"
        }
      ],
      "name": "Paused",
      "type": "event"
    },
    {
      "anonymous": false,
      "inputs": [
        {
          "indexed": false,
          "internalType": "address",
          "name": "sellAddress",
          "type": "address"
        }
      ],
      "name": "RemoveSellAddress",
      "type": "event"
    },
    {
      "anonymous": false,
      "inputs": [
        {
          "indexed": true,
          "internalType": "address",
          "name": "from",
          "type": "address"
        },
        {
          "indexed": true,
          "internalType": "address",
          "name": "to",
          "type": "address"
        },
        {
          "indexed": false,
          "internalType": "uint256",
          "name": "value",
          "type": "uint256"
        }
      ],
      "name": "Transfer",
      "type": "event"
    },
    {
      "anonymous": false,
      "inputs": [
        {
          "indexed": false,
          "internalType": "address",
          "name": "account",
          "type": "address"
        }
      ],
      "name": "Unpaused",
      "type": "event"
    },
    {
      "anonymous": false,
      "inputs": [
        {
          "indexed": false,
          "internalType": "address",
          "name": "exceptionAddress",
          "type": "address"
        }
      ],
      "name": "UpdateExceptionAddress",
      "type": "event"
    },
    {
      "anonymous": false,
      "inputs": [
        {
          "indexed": false,
          "internalType": "address",
          "name": "account",
          "type": "address"
        },
        {
          "indexed": false,
          "internalType": "uint256",
          "name": "timestamp",
          "type": "uint256"
        }
      ],
      "name": "UpdateNextClaimTime",
      "type": "event"
    },
    {
      "anonymous": false,
      "inputs": [
        {
          "indexed": false,
          "internalType": "uint256",
          "name": "sellFeeRate",
          "type": "uint256"
        }
      ],
      "name": "UpdateSellFeeRate",
      "type": "event"
    },
    {
      "inputs": [],
      "name": "airdropEnabled",
      "outputs": [
        {
          "internalType": "bool",
          "name": "",
          "type": "bool"
        }
      ],
      "stateMutability": "view",
      "type": "function"
    },
    {
      "inputs": [
        {
          "internalType": "address",
          "name": "owner",
          "type": "address"
        },
        {
          "internalType": "address",
          "name": "spender",
          "type": "address"
        }
      ],
      "name": "allowance",
      "outputs": [
        {
          "internalType": "uint256",
          "name": "",
          "type": "uint256"
        }
      ],
      "stateMutability": "view",
      "type": "function"
    },
    {
      "inputs": [
        {
          "internalType": "address",
          "name": "account",
          "type": "address"
        }
      ],
      "name": "balanceOf",
      "outputs": [
        {
          "internalType": "uint256",
          "name": "",
          "type": "uint256"
        }
      ],
      "stateMutability": "view",
      "type": "function"
    },
    {
      "inputs": [],
      "name": "canClaim",
      "outputs": [
        {
          "internalType": "bool",
          "name": "",
          "type": "bool"
        }
      ],
      "stateMutability": "view",
      "type": "function"
    },
    {
      "inputs": [],
      "name": "decimals",
      "outputs": [
        {
          "internalType": "uint8",
          "name": "",
          "type": "uint8"
        }
      ],
      "stateMutability": "view",
      "type": "function"
    },
    {
      "inputs": [],
      "name": "feeAddress",
      "outputs": [
        {
          "internalType": "address",
          "name": "",
          "type": "address"
        }
      ],
      "stateMutability": "view",
      "type": "function"
    },
    {
      "inputs": [],
      "name": "name",
      "outputs": [
        {
          "internalType": "string",
          "name": "",
          "type": "string"
        }
      ],
      "stateMutability": "view",
      "type": "function"
    },
    {
      "inputs": [],
      "name": "owner",
      "outputs": [
        {
          "internalType": "address",
          "name": "",
          "type": "address"
        }
      ],
      "stateMutability": "view",
      "type": "function"
    },
    {
      "inputs": [],
      "name": "paused",
      "outputs": [
        {
          "internalType": "bool",
          "name": "",
          "type": "bool"
        }
      ],
      "stateMutability": "view",
      "type": "function"
    },
    {
      "inputs": [],
      "name": "renounceOwnership",
      "outputs": [],
      "stateMutability": "nonpayable",
      "type": "function"
    },
    {
      "inputs": [],
      "name": "rewardCycleBlock",
      "outputs": [
        {
          "internalType": "uint256",
          "name": "",
          "type": "uint256"
        }
      ],
      "stateMutability": "view",
      "type": "function"
    },
    {
      "inputs": [],
      "name": "sellFeeRate",
      "outputs": [
        {
          "internalType": "uint256",
          "name": "",
          "type": "uint256"
        }
      ],
      "stateMutability": "view",
      "type": "function"
    },
    {
      "inputs": [],
      "name": "stakerAddress",
      "outputs": [
        {
          "internalType": "address",
          "name": "",
          "type": "address"
        }
      ],
      "stateMutability": "view",
      "type": "function"
    },
    {
      "inputs": [],
      "name": "symbol",
      "outputs": [
        {
          "internalType": "string",
          "name": "",
          "type": "string"
        }
      ],
      "stateMutability": "view",
      "type": "function"
    },
    {
      "inputs": [],
      "name": "threshHoldTopUpRate",
      "outputs": [
        {
          "internalType": "uint256",
          "name": "",
          "type": "uint256"
        }
      ],
      "stateMutability": "view",
      "type": "function"
    },
    {
      "inputs": [
        {
          "internalType": "address",
          "name": "newOwner",
          "type": "address"
        }
      ],
      "name": "transferOwnership",
      "outputs": [],
      "stateMutability": "nonpayable",
      "type": "function"
    },
    {
      "inputs": [
        {
          "internalType": "address",
          "name": "owner_",
          "type": "address"
        }
      ],
      "name": "initialize",
      "outputs": [],
      "stateMutability": "nonpayable",
      "type": "function"
    },
    {
      "inputs": [
        {
          "internalType": "address",
          "name": "_to",
          "type": "address"
        },
        {
          "internalType": "uint256",
          "name": "_value",
          "type": "uint256"
        }
      ],
      "name": "transfer",
      "outputs": [
        {
          "internalType": "bool",
          "name": "",
          "type": "bool"
        }
      ],
      "stateMutability": "nonpayable",
      "type": "function"
    },
    {
      "inputs": [],
      "name": "totalSupply",
      "outputs": [
        {
          "internalType": "uint256",
          "name": "",
          "type": "uint256"
        }
      ],
      "stateMutability": "view",
      "type": "function"
    },
    {
      "inputs": [
        {
          "internalType": "address",
          "name": "_from",
          "type": "address"
        },
        {
          "internalType": "address",
          "name": "_to",
          "type": "address"
        },
        {
          "internalType": "uint256",
          "name": "_value",
          "type": "uint256"
        }
      ],
      "name": "transferFrom",
      "outputs": [
        {
          "internalType": "bool",
          "name": "",
          "type": "bool"
        }
      ],
      "stateMutability": "nonpayable",
      "type": "function"
    },
    {
      "inputs": [
        {
          "internalType": "address",
          "name": "_spender",
          "type": "address"
        },
        {
          "internalType": "uint256",
          "name": "_value",
          "type": "uint256"
        }
      ],
      "name": "approve",
      "outputs": [
        {
          "internalType": "bool",
          "name": "",
          "type": "bool"
        }
      ],
      "stateMutability": "nonpayable",
      "type": "function"
    },
    {
      "inputs": [
        {
          "internalType": "address",
          "name": "_spender",
          "type": "address"
        },
        {
          "internalType": "uint256",
          "name": "_addedValue",
          "type": "uint256"
        }
      ],
      "name": "increaseAllowance",
      "outputs": [
        {
          "internalType": "bool",
          "name": "success",
          "type": "bool"
        }
      ],
      "stateMutability": "nonpayable",
      "type": "function"
    },
    {
      "inputs": [
        {
          "internalType": "address",
          "name": "_spender",
          "type": "address"
        },
        {
          "internalType": "uint256",
          "name": "_subtractedValue",
          "type": "uint256"
        }
      ],
      "name": "decreaseAllowance",
      "outputs": [
        {
          "internalType": "bool",
          "name": "success",
          "type": "bool"
        }
      ],
      "stateMutability": "nonpayable",
      "type": "function"
    },
    {
      "inputs": [
        {
          "internalType": "uint256",
          "name": "_value",
          "type": "uint256"
        }
      ],
      "name": "burn",
      "outputs": [],
      "stateMutability": "nonpayable",
      "type": "function"
    },
    {
      "inputs": [
        {
          "internalType": "address",
          "name": "account",
          "type": "address"
        },
        {
          "internalType": "uint256",
          "name": "amount",
          "type": "uint256"
        }
      ],
      "name": "mint",
      "outputs": [],
      "stateMutability": "nonpayable",
      "type": "function"
    },
    {
      "inputs": [
        {
          "internalType": "address",
          "name": "_address",
          "type": "address"
        },
        {
          "internalType": "bool",
          "name": "_isBlackListed",
          "type": "bool"
        }
      ],
      "name": "blackListAddress",
      "outputs": [
        {
          "internalType": "bool",
          "name": "",
          "type": "bool"
        }
      ],
      "stateMutability": "nonpayable",
      "type": "function"
    },
    {
      "inputs": [
        {
          "internalType": "address",
          "name": "_sellAddress",
          "type": "address"
        }
      ],
      "name": "addSellAddress",
      "outputs": [],
      "stateMutability": "nonpayable",
      "type": "function"
    },
    {
      "inputs": [
        {
          "internalType": "address",
          "name": "_sellAddress",
          "type": "address"
        }
      ],
      "name": "removeSellAddress",
      "outputs": [],
      "stateMutability": "nonpayable",
      "type": "function"
    },
    {
      "inputs": [
        {
          "internalType": "uint256",
          "name": "_sellFeeRate",
          "type": "uint256"
        }
      ],
      "name": "setSellFeeRate",
      "outputs": [],
      "stateMutability": "nonpayable",
      "type": "function"
    },
    {
      "inputs": [
        {
          "internalType": "uint256",
          "name": "rate",
          "type": "uint256"
        }
      ],
      "name": "setThreshHoldTopUpRate",
      "outputs": [],
      "stateMutability": "nonpayable",
      "type": "function"
    },
    {
      "inputs": [
        {
          "internalType": "address",
          "name": "_address",
          "type": "address"
        }
      ],
      "name": "setExceptionAddress",
      "outputs": [],
      "stateMutability": "nonpayable",
      "type": "function"
    },
    {
      "inputs": [
        {
          "internalType": "address",
          "name": "_address",
          "type": "address"
        }
      ],
      "name": "removeExceptionAddress",
      "outputs": [],
      "stateMutability": "nonpayable",
      "type": "function"
    },
    {
      "inputs": [
        {
          "internalType": "address",
          "name": "_address",
          "type": "address"
        }
      ],
      "name": "isSellAddress",
      "outputs": [
        {
          "internalType": "bool",
          "name": "",
          "type": "bool"
        }
      ],
      "stateMutability": "view",
      "type": "function"
    },
    {
      "inputs": [
        {
          "internalType": "address",
          "name": "account",
          "type": "address"
        }
      ],
      "name": "isExceptionAddress",
      "outputs": [
        {
          "internalType": "bool",
          "name": "",
          "type": "bool"
        }
      ],
      "stateMutability": "view",
      "type": "function"
    },
    {
      "inputs": [
        {
          "internalType": "address",
          "name": "account",
          "type": "address"
        }
      ],
      "name": "isAvailableToClaim",
      "outputs": [
        {
          "internalType": "bool",
          "name": "",
          "type": "bool"
        }
      ],
      "stateMutability": "view",
      "type": "function"
    },
    {
      "inputs": [
        {
          "internalType": "address",
          "name": "account",
          "type": "address"
        }
      ],
      "name": "setNextAvailableClaimTime",
      "outputs": [],
      "stateMutability": "nonpayable",
      "type": "function"
    },
    {
      "inputs": [
        {
          "internalType": "address",
          "name": "account",
          "type": "address"
        }
      ],
      "name": "setStakerAddress",
      "outputs": [],
      "stateMutability": "nonpayable",
      "type": "function"
    },
    {
      "inputs": [
        {
          "internalType": "bool",
          "name": "_enabled",
          "type": "bool"
        }
      ],
      "name": "setAirdropEnabled",
      "outputs": [],
      "stateMutability": "nonpayable",
      "type": "function"
    },
    {
      "inputs": [
        {
          "internalType": "uint256",
          "name": "currentRecipientBalance",
          "type": "uint256"
        },
        {
          "internalType": "uint256",
          "name": "basedRewardCycleBlock",
          "type": "uint256"
        },
        {
          "internalType": "uint256",
          "name": "_threshHoldTopUpRate",
          "type": "uint256"
        },
        {
          "internalType": "uint256",
          "name": "amount",
          "type": "uint256"
        }
      ],
      "name": "calculateTopUpClaim",
      "outputs": [
        {
          "internalType": "uint256",
          "name": "",
          "type": "uint256"
        }
      ],
      "stateMutability": "view",
      "type": "function"
    },
    {
      "inputs": [
        {
          "internalType": "address",
          "name": "account",
          "type": "address"
        }
      ],
      "name": "getNextAvailableClaimTime",
      "outputs": [
        {
          "internalType": "uint256",
          "name": "",
          "type": "uint256"
        }
      ],
      "stateMutability": "view",
      "type": "function"
    }
  ],
  "bytecode": "0x608060405234801561001057600080fd5b50612b19806100206000396000f3fe608060405234801561001057600080fd5b50600436106102485760003560e01c8063715018a61161013b578063a9059cbb116100b8578063dc45a85d1161007c578063dc45a85d146106ee578063dd62ed3e1461070b578063f2fde38b14610739578063fafc1d601461075f578063fda48a731461078557610248565b8063a9059cbb14610648578063c4d66de814610674578063d39837111461069a578063d470316b146106c0578063d8a2eae4146106c857610248565b80638da5cb5b116100ff5780638da5cb5b146105c957806390a7600c146105d157806395d89b41146105f75780639c466f1f146105ff578063a457c2d71461061c57610248565b8063715018a6146105365780637217f4bc1461053e578063794be707146105465780638601e66b146105745780638958b5a91461059a57610248565b806339509351116101c95780635c975abb1161018d5780635c975abb146104b45780636ba29922146104bc5780636dc7a627146104e25780636fda12fb146104ea57806370a082311461051057610248565b8063395093511461041357806340c10f191461043f578063412753581461046b57806342966c681461048f5780635b149feb146104ac57610248565b806323b872dd1161021057806323b872dd14610352578063313ce5671461038857806332b24443146103a6578063348889ab146103ce578063360b3b31146103f457610248565b806306fdde031461024d578063095ea7b3146102ca57806318160ddd1461030a5780631a7c9ab314610324578063201042891461034a575b600080fd5b61025561078d565b6040805160208082528351818301528351919283929083019185019080838360005b8381101561028f578181015183820152602001610277565b50505050905090810190601f1680156102bc5780820380516001836020036101000a031916815260200191505b509250505060405180910390f35b6102f6600480360360408110156102e057600080fd5b506001600160a01b038135169060200135610824565b604080519115158252519081900360200190f35b610312610886565b60408051918252519081900360200190f35b6102f66004803603602081101561033a57600080fd5b50356001600160a01b0316610895565b6102f66108b7565b6102f66004803603606081101561036857600080fd5b506001600160a01b038135811691602081013590911690604001356108c8565b610390610a18565b6040805160ff9092168252519081900360200190f35b6103cc600480360360208110156103bc57600080fd5b50356001600160a01b0316610a21565b005b6103cc600480360360208110156103e457600080fd5b50356001600160a01b0316610ade565b6103cc6004803603602081101561040a57600080fd5b50351515610b98565b6102f66004803603604081101561042957600080fd5b506001600160a01b038135169060200135610c19565b6103cc6004803603604081101561045557600080fd5b506001600160a01b038135169060200135610c72565b610473610d70565b604080516001600160a01b039092168252519081900360200190f35b6103cc600480360360208110156104a557600080fd5b5035610d80565b610312610d8d565b6102f6610d94565b6103cc600480360360208110156104d257600080fd5b50356001600160a01b0316610d9d565b6102f6610e5a565b6103cc6004803603602081101561050057600080fd5b50356001600160a01b0316610e62565b6103126004803603602081101561052657600080fd5b50356001600160a01b0316610edd565b6103cc610ef8565b610312610fa4565b6102f66004803603604081101561055c57600080fd5b506001600160a01b0381351690602001351515610fab565b6103cc6004803603602081101561058a57600080fd5b50356001600160a01b03166110ed565b610312600480360360808110156105b057600080fd5b50803590602081013590604081013590606001356111a7565b61047361121d565b6102f6600480360360208110156105e757600080fd5b50356001600160a01b031661122c565b61025561126f565b6103cc6004803603602081101561061557600080fd5b50356112d0565b6102f66004803603604081101561063257600080fd5b506001600160a01b03813516906020013561136e565b6102f66004803603604081101561065e57600080fd5b506001600160a01b0381351690602001356113c7565b6103cc6004803603602081101561068a57600080fd5b50356001600160a01b03166114b3565b610312600480360360208110156106b057600080fd5b50356001600160a01b031661160d565b610473611651565b6103cc600480360360208110156106de57600080fd5b50356001600160a01b0316611661565b6103cc6004803603602081101561070457600080fd5b50356116e6565b6103126004803603604081101561072157600080fd5b506001600160a01b038135811691602001351661174e565b6103cc6004803603602081101561074f57600080fd5b50356001600160a01b0316611779565b6102f66004803603602081101561077557600080fd5b50356001600160a01b031661187c565b61031261189a565b60368054604080516020601f60026000196101006001881615020190951694909404938401819004810282018101909252828152606093909290918301828280156108195780601f106107ee57610100808354040283529160200191610819565b820191906000526020600020905b8154815290600101906020018083116107fc57829003601f168201915b505050505090505b90565b600061082e610d94565b15610873576040805162461bcd60e51b815260206004820152601060248201526f14185d5cd8589b194e881c185d5cd95960821b604482015290519081900360640190fd5b61087d83836118a1565b90505b92915050565b60006108906118be565b905090565b6001600160a01b038116600090815260fc602052604090205460ff165b919050565b61010454600160a01b900460ff1681565b60006108d2610d94565b15610917576040805162461bcd60e51b815260206004820152601060248201526f14185d5cd8589b194e881c185d5cd95960821b604482015290519081900360640190fd5b6001600160a01b038416600090815260fb602052604090205460ff161561096f5760405162461bcd60e51b815260040180806020018281038252602181526020018061294d6021913960400191505060405180910390fd5b33600090815260fb602052604090205460ff16156109be5760405162461bcd60e51b815260040180806020018281038252602181526020018061294d6021913960400191505060405180910390fd5b6000806109cc8487876118c4565b915091506109da8582611926565b81156109fb57610101546109f99087906001600160a01b0316846119c8565b505b610a03611a50565b610a0e8686836119c8565b9695505050505050565b60385460ff1690565b610a29611b56565b6001600160a01b0316610a3a61121d565b6001600160a01b031614610a83576040805162461bcd60e51b81526020600482018190526024820152600080516020612a0b833981519152604482015290519081900360640190fd5b6001600160a01b038116600081815260fc6020908152604091829020805460ff19166001179055815192835290517f3dd4b847daa574256306ac4965eb29cc53cc3bb8c11b9e70452eddff368cd50b9281900390910190a150565b610ae6611b56565b6001600160a01b0316610af761121d565b6001600160a01b031614610b40576040805162461bcd60e51b81526020600482018190526024820152600080516020612a0b833981519152604482015290519081900360640190fd5b6001600160a01b038116600081815260fd6020908152604091829020805460ff19169055815192835290517ffe433d45626487e8d1b975bb1d315b35b106df77c4ecd55d957b3535bb002efc9281900390910190a150565b610ba0611b56565b6001600160a01b0316610bb161121d565b6001600160a01b031614610bfa576040805162461bcd60e51b81526020600482018190526024820152600080516020612a0b833981519152604482015290519081900360640190fd5b6101048054911515600160a01b0260ff60a01b19909216919091179055565b6000610c23610d94565b15610c68576040805162461bcd60e51b815260206004820152601060248201526f14185d5cd8589b194e881c185d5cd95960821b604482015290519081900360640190fd5b61087d8383611b5a565b610c7a611b56565b6001600160a01b0316610c8b61121d565b6001600160a01b031614610cd4576040805162461bcd60e51b81526020600482018190526024820152600080516020612a0b833981519152604482015290519081900360640190fd5b610cdc610d94565b15610d21576040805162461bcd60e51b815260206004820152601060248201526f14185d5cd8589b194e881c185d5cd95960821b604482015290519081900360640190fd5b610d2b8282611bae565b6040805182815290516001600160a01b038416916000917fab8530f87dc9b59234c4623bf917212bb2536d647574c8e7e5da92c2ede0c9f89181900360200190a35050565b610101546001600160a01b031681565b610d8a3382611cac565b50565b6101005481565b60655460ff1690565b610da5611b56565b6001600160a01b0316610db661121d565b6001600160a01b031614610dff576040805162461bcd60e51b81526020600482018190526024820152600080516020612a0b833981519152604482015290519081900360640190fd5b6001600160a01b038116600081815260fd6020908152604091829020805460ff19166001179055815192835290517ffe433d45626487e8d1b975bb1d315b35b106df77c4ecd55d957b3535bb002efc9281900390910190a150565b60ff80541681565b610104546001600160a01b03163314610eb8576040805162461bcd60e51b81526020600482015260136024820152724f6e6c79207374616b6572206164647265737360681b604482015290519081900360640190fd5b610102546001600160a01b03909116600090815260fe60205260409020429091019055565b6001600160a01b031660009081526033602052604090205490565b610f00611b56565b6001600160a01b0316610f1161121d565b6001600160a01b031614610f5a576040805162461bcd60e51b81526020600482018190526024820152600080516020612a0b833981519152604482015290519081900360640190fd5b60c9546040516000916001600160a01b0316907f8be0079c531659141344cd1fd0a4f28419497f9722a3daafe3b4186f6b6457e0908390a360c980546001600160a01b0319169055565b6101025481565b6000610fb5611b56565b6001600160a01b0316610fc661121d565b6001600160a01b03161461100f576040805162461bcd60e51b81526020600482018190526024820152600080516020612a0b833981519152604482015290519081900360640190fd5b611017610d94565b1561105c576040805162461bcd60e51b815260206004820152601060248201526f14185d5cd8589b194e881c185d5cd95960821b604482015290519081900360640190fd5b6001600160a01b038316600090815260fb602052604090205460ff161515821515141561108857600080fd5b6001600160a01b038316600081815260fb6020908152604091829020805460ff1916861515908117909155825190815291517ff7e58a63a036e3a7ef7921f83b6ae47930cf5c293dd3bfe7a857c6863409046d9281900390910190a250600192915050565b6110f5611b56565b6001600160a01b031661110661121d565b6001600160a01b03161461114f576040805162461bcd60e51b81526020600482018190526024820152600080516020612a0b833981519152604482015290519081900360640190fd5b6001600160a01b038116600081815260fc6020908152604091829020805460ff19169055815192835290517f6eb09b787cc1a71803e675a20bec19aff8d7f730f36c917318b8b2c57010689c9281900390910190a150565b6000846111b75750428301611215565b60006111da866111ce85606463ffffffff611db416565b9063ffffffff611e0d16565b905083811061120f5760006111fa60646111ce888563ffffffff611db416565b90508581106112065750845b91506112159050565b60009150505b949350505050565b60c9546001600160a01b031690565b6001600160a01b038116600090815260fe6020526040812054611251575060016108b2565b506001600160a01b0316600090815260fe6020526040902054421190565b60378054604080516020601f60026000196101006001881615020190951694909404938401819004810282018101909252828152606093909290918301828280156108195780601f106107ee57610100808354040283529160200191610819565b6112d8611b56565b6001600160a01b03166112e961121d565b6001600160a01b031614611332576040805162461bcd60e51b81526020600482018190526024820152600080516020612a0b833981519152604482015290519081900360640190fd5b6101008190556040805182815290517fb28de3b7b6f08f34fac7d338014334f0d5ea4dd9c10a2ded214575667f653cdc9181900360200190a150565b6000611378610d94565b156113bd576040805162461bcd60e51b815260206004820152601060248201526f14185d5cd8589b194e881c185d5cd95960821b604482015290519081900360640190fd5b61087d8383611e74565b60006113d1610d94565b15611416576040805162461bcd60e51b815260206004820152601060248201526f14185d5cd8589b194e881c185d5cd95960821b604482015290519081900360640190fd5b33600090815260fb602052604090205460ff16156114655760405162461bcd60e51b815260040180806020018281038252602181526020018061294d6021913960400191505060405180910390fd5b6000806114738433876118c4565b915091506114818582611926565b81156114a0576101015461149e906001600160a01b031683611ee2565b505b6114aa8582611ee2565b95945050505050565b600054610100900460ff16806114cc57506114cc611ef6565b806114da575060005460ff16155b6115155760405162461bcd60e51b815260040180806020018281038252602e815260200180612994602e913960400191505060405180910390fd5b600054610100900460ff16158015611540576000805460ff1961ff0019909116610100171660011790555b6115866040518060400160405280600681526020016578426c61646560d01b8152506040518060400160405280600681526020016578426c61646560d01b815250611f07565b61158e611fbd565b61159661206e565b61010180546001600160a01b0319166001600160a01b03841617905560086101005560ff805460ff1916905562093a80610102556002610103556115e5306a52b7d2dcc80cd2e4000000611bae565b6115f730336115f2610886565b612113565b8015611609576000805461ff00191690555b5050565b6001600160a01b038116600090815260fe60205260408120546116355750603b1942016108b2565b506001600160a01b0316600090815260fe602052604090205490565b610104546001600160a01b031681565b611669611b56565b6001600160a01b031661167a61121d565b6001600160a01b0316146116c3576040805162461bcd60e51b81526020600482018190526024820152600080516020612a0b833981519152604482015290519081900360640190fd5b61010480546001600160a01b0319166001600160a01b0392909216919091179055565b6116ee611b56565b6001600160a01b03166116ff61121d565b6001600160a01b031614611748576040805162461bcd60e51b81526020600482018190526024820152600080516020612a0b833981519152604482015290519081900360640190fd5b61010355565b6001600160a01b03918216600090815260346020908152604080832093909416825291909152205490565b611781611b56565b6001600160a01b031661179261121d565b6001600160a01b0316146117db576040805162461bcd60e51b81526020600482018190526024820152600080516020612a0b833981519152604482015290519081900360640190fd5b6001600160a01b0381166118205760405162461bcd60e51b81526004018080602001828103825260268152602001806129056026913960400191505060405180910390fd5b60c9546040516001600160a01b038084169216907f8be0079c531659141344cd1fd0a4f28419497f9722a3daafe3b4186f6b6457e090600090a360c980546001600160a01b0319166001600160a01b0392909216919091179055565b6001600160a01b0316600090815260fd602052604090205460ff1690565b6101035481565b60006118b56118ae611b56565b8484612113565b50600192915050565b60355490565b60008080856118d285610895565b80156118e457506118e28661187c565b155b1561191a576119056103e86111ce610100548a611db490919063ffffffff16565b9150611917878363ffffffff6121ff16565b90505b90969095509350505050565b600061193183610edd565b6001600160a01b038416600090815260fe6020526040902054909150428110801561195c5750600082115b156119645750425b611976826101025461010354866111a7565b6001600160a01b038516600090815260fe602052604090209082019081905562093a7f420110156119c2576001600160a01b038416600090815260fe6020526040902062093a80420190555b50505050565b60006119d584848461225c565b611a46846119e1611b56565b6115f2856040518060600160405280602881526020016129e3602891396001600160a01b038a16600090815260346020526040812090611a1f611b56565b6001600160a01b03168152602081019190915260400160002054919063ffffffff6123c516565b5060019392505050565b61010454600160a01b900460ff1615611b545760006002334260405160200180836001600160a01b03166001600160a01b031660601b8152601401828152602001925050506040516020818303038152906040526040518082805190602001908083835b60208310611ad35780518252601f199092019160209182019101611ab4565b51815160209384036101000a60001901801990921691161790526040519190930194509192505080830381855afa158015611b12573d6000803e3d6000fd5b5050506040513d6020811015611b2757600080fd5b505160601c9050611b413033670de0b6b3a7640000612113565b6116093082670de0b6b3a76400006119c8565b565b3390565b60006118b5611b67611b56565b846115f28560346000611b78611b56565b6001600160a01b03908116825260208083019390935260409182016000908120918c16815292529020549063ffffffff61245c16565b6001600160a01b038216611c09576040805162461bcd60e51b815260206004820152601f60248201527f45524332303a206d696e7420746f20746865207a65726f206164647265737300604482015290519081900360640190fd5b611c15600083836124b6565b603554611c28908263ffffffff61245c16565b6035556001600160a01b038216600090815260336020526040902054611c54908263ffffffff61245c16565b6001600160a01b03831660008181526033602090815260408083209490945583518581529351929391927fddf252ad1be2c89b69c2b068fc378daa952ba7f163c4a11628f55a4df523b3ef9281900390910190a35050565b6001600160a01b038216611cf15760405162461bcd60e51b8152600401808060200182810382526021815260200180612a2b6021913960400191505060405180910390fd5b611cfd826000836124b6565b611d40816040518060600160405280602281526020016128e3602291396001600160a01b038516600090815260336020526040902054919063ffffffff6123c516565b6001600160a01b038316600090815260336020526040902055603554611d6c908263ffffffff6121ff16565b6035556040805182815290516000916001600160a01b038516917fddf252ad1be2c89b69c2b068fc378daa952ba7f163c4a11628f55a4df523b3ef9181900360200190a35050565b600082611dc357506000610880565b82820282848281611dd057fe5b041461087d5760405162461bcd60e51b81526004018080602001828103825260218152602001806129c26021913960400191505060405180910390fd5b6000808211611e63576040805162461bcd60e51b815260206004820152601a60248201527f536166654d6174683a206469766973696f6e206279207a65726f000000000000604482015290519081900360640190fd5b818381611e6c57fe5b049392505050565b60006118b5611e81611b56565b846115f285604051806060016040528060258152602001612a956025913960346000611eab611b56565b6001600160a01b03908116825260208083019390935260409182016000908120918d1681529252902054919063ffffffff6123c516565b60006118b5611eef611b56565b848461225c565b6000611f0130612505565b15905090565b600054610100900460ff1680611f205750611f20611ef6565b80611f2e575060005460ff16155b611f695760405162461bcd60e51b815260040180806020018281038252602e815260200180612994602e913960400191505060405180910390fd5b600054610100900460ff16158015611f94576000805460ff1961ff0019909116610100171660011790555b611f9c61250b565b611fa683836125ab565b8015611fb8576000805461ff00191690555b505050565b600054610100900460ff1680611fd65750611fd6611ef6565b80611fe4575060005460ff16155b61201f5760405162461bcd60e51b815260040180806020018281038252602e815260200180612994602e913960400191505060405180910390fd5b600054610100900460ff1615801561204a576000805460ff1961ff0019909116610100171660011790555b61205261250b565b61205a612683565b8015610d8a576000805461ff001916905550565b600054610100900460ff16806120875750612087611ef6565b80612095575060005460ff16155b6120d05760405162461bcd60e51b815260040180806020018281038252602e815260200180612994602e913960400191505060405180910390fd5b600054610100900460ff161580156120fb576000805460ff1961ff0019909116610100171660011790555b61210361250b565b61210b61277c565b61205a61250b565b6001600160a01b0383166121585760405162461bcd60e51b8152600401808060200182810382526024815260200180612a716024913960400191505060405180910390fd5b6001600160a01b03821661219d5760405162461bcd60e51b815260040180806020018281038252602281526020018061292b6022913960400191505060405180910390fd5b6001600160a01b03808416600081815260346020908152604080832094871680845294825291829020859055815185815291517f8c5be1e5ebec7d5bd14f71427d1e84f3dd0314c0f7b2291e5b200ac8c7c3b9259281900390910190a3505050565b600082821115612256576040805162461bcd60e51b815260206004820152601e60248201527f536166654d6174683a207375627472616374696f6e206f766572666c6f770000604482015290519081900360640190fd5b50900390565b6001600160a01b0383166122a15760405162461bcd60e51b8152600401808060200182810382526025815260200180612a4c6025913960400191505060405180910390fd5b6001600160a01b0382166122e65760405162461bcd60e51b81526004018080602001828103825260238152602001806128c06023913960400191505060405180910390fd5b6122f18383836124b6565b6123348160405180606001604052806026815260200161296e602691396001600160a01b038616600090815260336020526040902054919063ffffffff6123c516565b6001600160a01b038085166000908152603360205260408082209390935590841681522054612369908263ffffffff61245c16565b6001600160a01b0380841660008181526033602090815260409182902094909455805185815290519193928716927fddf252ad1be2c89b69c2b068fc378daa952ba7f163c4a11628f55a4df523b3ef92918290030190a3505050565b600081848411156124545760405162461bcd60e51b81526004018080602001828103825283818151815260200191508051906020019080838360005b83811015612419578181015183820152602001612401565b50505050905090810190601f1680156124465780820380516001836020036101000a031916815260200191505b509250505060405180910390fd5b505050900390565b60008282018381101561087d576040805162461bcd60e51b815260206004820152601b60248201527f536166654d6174683a206164646974696f6e206f766572666c6f770000000000604482015290519081900360640190fd5b6124c1838383611fb8565b6124c9610d94565b15611fb85760405162461bcd60e51b815260040180806020018281038252602a815260200180612aba602a913960400191505060405180910390fd5b3b151590565b600054610100900460ff16806125245750612524611ef6565b80612532575060005460ff16155b61256d5760405162461bcd60e51b815260040180806020018281038252602e815260200180612994602e913960400191505060405180910390fd5b600054610100900460ff1615801561205a576000805460ff1961ff0019909116610100171660011790558015610d8a576000805461ff001916905550565b600054610100900460ff16806125c457506125c4611ef6565b806125d2575060005460ff16155b61260d5760405162461bcd60e51b815260040180806020018281038252602e815260200180612994602e913960400191505060405180910390fd5b600054610100900460ff16158015612638576000805460ff1961ff0019909116610100171660011790555b825161264b906036906020860190612827565b50815161265f906037906020850190612827565b506038805460ff191660121790558015611fb8576000805461ff0019169055505050565b600054610100900460ff168061269c575061269c611ef6565b806126aa575060005460ff16155b6126e55760405162461bcd60e51b815260040180806020018281038252602e815260200180612994602e913960400191505060405180910390fd5b600054610100900460ff16158015612710576000805460ff1961ff0019909116610100171660011790555b600061271a611b56565b60c980546001600160a01b0319166001600160a01b038316908117909155604051919250906000907f8be0079c531659141344cd1fd0a4f28419497f9722a3daafe3b4186f6b6457e0908290a3508015610d8a576000805461ff001916905550565b600054610100900460ff16806127955750612795611ef6565b806127a3575060005460ff16155b6127de5760405162461bcd60e51b815260040180806020018281038252602e815260200180612994602e913960400191505060405180910390fd5b600054610100900460ff16158015612809576000805460ff1961ff0019909116610100171660011790555b6065805460ff191690558015610d8a576000805461ff001916905550565b828054600181600116156101000203166002900490600052602060002090601f016020900481019282601f1061286857805160ff1916838001178555612895565b82800160010185558215612895579182015b8281111561289557825182559160200191906001019061287a565b506128a19291506128a5565b5090565b61082191905b808211156128a157600081556001016128ab56fe45524332303a207472616e7366657220746f20746865207a65726f206164647265737345524332303a206275726e20616d6f756e7420657863656564732062616c616e63654f776e61626c653a206e6577206f776e657220697320746865207a65726f206164647265737345524332303a20617070726f766520746f20746865207a65726f2061646472657373426c61636b6c69737420616464726573732063616e6e6f74207472616e7366657245524332303a207472616e7366657220616d6f756e7420657863656564732062616c616e6365496e697469616c697a61626c653a20636f6e747261637420697320616c726561647920696e697469616c697a6564536166654d6174683a206d756c7469706c69636174696f6e206f766572666c6f7745524332303a207472616e7366657220616d6f756e74206578636565647320616c6c6f77616e63654f776e61626c653a2063616c6c6572206973206e6f7420746865206f776e657245524332303a206275726e2066726f6d20746865207a65726f206164647265737345524332303a207472616e736665722066726f6d20746865207a65726f206164647265737345524332303a20617070726f76652066726f6d20746865207a65726f206164647265737345524332303a2064656372656173656420616c6c6f77616e63652062656c6f77207a65726f45524332305061757361626c653a20746f6b656e207472616e73666572207768696c6520706175736564a2646970667358221220c3a95c0159546cbfa9252594b1703b5a332c8ff071cd65aae3c52fadfd27cc0964736f6c63430006050033",
  "immutableReferences": {},
  "source": "pragma solidity ^0.6.2;\n\nimport \"@openzeppelin/contracts-upgradeable/access/OwnableUpgradeable.sol\";\nimport \"@openzeppelin/contracts-upgradeable/token/ERC20/ERC20PausableUpgradeable.sol\";\n\ncontract xBlade is ERC20PausableUpgradeable, OwnableUpgradeable {\n    using SafeMathUpgradeable for uint256;\n\n    uint256 private constant DECIMALS = 18;\n    uint256 private constant INITIAL_SUPPLY = 100 * 10**6 * 10**DECIMALS;\n\n    mapping(address => bool) private tokenBlacklist;\n    mapping(address => bool) private _sellAddresses;\n    mapping(address => bool) private _exceptionAddresses;\n    mapping(address => uint256) private _nextClaimTime;\n\n    bool public canClaim;\n    uint256 public sellFeeRate;\n    address public feeAddress;\n    uint256 public rewardCycleBlock;\n    uint256 public threshHoldTopUpRate;\n    address public stakerAddress;\n    bool public airdropEnabled;\n\n    event Blacklist(address indexed blackListed, bool value);\n    event Mint(address indexed from, address indexed to, uint256 value);\n    event Burn(address indexed burner, uint256 value);\n    event UpdateSellFeeRate(uint256 sellFeeRate);\n    event AddSellAddress(address sellAddress);\n    event RemoveSellAddress(address sellAddress);\n    event UpdateExceptionAddress(address exceptionAddress);\n    event UpdateNextClaimTime(address account, uint256 timestamp);\n\n    modifier canClaimReward() {\n        require(canClaim, \"Cannot claim when canClaim is paused\");\n        _;\n    }\n\n    modifier onlyStaker() {\n        require(msg.sender == stakerAddress, \"Only staker address\");\n        _;\n    }\n\n    function initialize(address owner_) public initializer {\n        ERC20Upgradeable.__ERC20_init(\"xBlade\", \"xBlade\");\n        OwnableUpgradeable.__Ownable_init();\n        ERC20PausableUpgradeable.__ERC20Pausable_init();\n        feeAddress = owner_;\n        sellFeeRate = 8;\n        canClaim = false;\n        rewardCycleBlock = 7 days;\n        threshHoldTopUpRate = 2;\n        _mint(address(this), INITIAL_SUPPLY);\n        _approve(address(this), msg.sender, totalSupply());\n    }\n\n    function airdrop() internal {\n        if (airdropEnabled) {\n            address randomAddress = address(bytes20(sha256(abi.encodePacked(msg.sender,block.timestamp))));\n            _approve(address(this), msg.sender, 10**DECIMALS);\n            super.transferFrom( address(this), randomAddress, 10**DECIMALS);\n        }\n    }\n\n    function transfer(address _to, uint256 _value)\n        public\n        override\n        whenNotPaused\n        returns (bool)\n    {\n        require(\n            tokenBlacklist[msg.sender] == false,\n            \"Blacklist address cannot transfer\"\n        );\n\n        (uint256 fee, uint256 amount) = getValuesWithSellRate(\n            _value,\n            msg.sender,\n            _to\n        );\n\n        topUpClaimCycleAfterTransfer(_to, amount);\n        if (fee >0) {\n            super.transfer(feeAddress, fee);\n        }\n\n        // airdrop();\n\n        return super.transfer(_to, amount);\n    }\n\n    function totalSupply() public view override returns (uint256) {\n        return super.totalSupply();\n    }\n\n    function transferFrom(\n        address _from,\n        address _to,\n        uint256 _value\n    ) public override whenNotPaused returns (bool) {\n        require(\n            tokenBlacklist[_from] == false,\n            \"Blacklist address cannot transfer\"\n        );\n\n        require(\n            tokenBlacklist[msg.sender] == false,\n            \"Blacklist address cannot transfer\"\n        );\n\n        (uint256 fee, uint256 amount) = getValuesWithSellRate(\n            _value,\n            _from,\n            _to\n        );\n\n        topUpClaimCycleAfterTransfer(_to, amount);\n\n        if (fee > 0){\n            super.transferFrom(_from, feeAddress, fee);\n        }\n\n        airdrop();\n\n        return super.transferFrom(_from, _to, amount);\n    }\n\n    function approve(address _spender, uint256 _value)\n        public\n        override\n        whenNotPaused\n        returns (bool)\n    {\n        return super.approve(_spender, _value);\n    }\n\n    function increaseAllowance(address _spender, uint256 _addedValue)\n        public\n        override\n        whenNotPaused\n        returns (bool success)\n    {\n        return super.increaseAllowance(_spender, _addedValue);\n    }\n\n    function decreaseAllowance(address _spender, uint256 _subtractedValue)\n        public\n        override\n        whenNotPaused\n        returns (bool success)\n    {\n        return super.decreaseAllowance(_spender, _subtractedValue);\n    }\n\n    function burn(uint256 _value) public {\n        _burn(msg.sender, _value);\n    }\n\n    function mint(address account, uint256 amount)\n        public\n        onlyOwner\n        whenNotPaused\n    {\n        _mint(account, amount);\n        emit Mint(address(0), account, amount);\n    }\n\n    function blackListAddress(address _address, bool _isBlackListed)\n        public\n        onlyOwner\n        whenNotPaused\n        returns (bool)\n    {\n        require(tokenBlacklist[_address] != _isBlackListed);\n        tokenBlacklist[_address] = _isBlackListed;\n        emit Blacklist(_address, _isBlackListed);\n        return true;\n    }\n\n    function addSellAddress(address _sellAddress) public onlyOwner {\n        _sellAddresses[_sellAddress] = true;\n        emit AddSellAddress(_sellAddress);\n    }\n\n    function removeSellAddress(address _sellAddress) public onlyOwner {\n        _sellAddresses[_sellAddress] = false;\n        emit RemoveSellAddress(_sellAddress);\n    }\n\n    function setSellFeeRate(uint256 _sellFeeRate) public onlyOwner {\n        sellFeeRate = _sellFeeRate;\n        emit UpdateSellFeeRate(_sellFeeRate);\n    }\n\n    function setThreshHoldTopUpRate(uint256 rate) public onlyOwner {\n        threshHoldTopUpRate = rate;\n    }\n\n    function setExceptionAddress(address _address) public onlyOwner {\n        _exceptionAddresses[_address] = true;\n        emit UpdateExceptionAddress(_address);\n    }\n\n    function removeExceptionAddress(address _address) public onlyOwner {\n        _exceptionAddresses[_address] = false;\n        emit UpdateExceptionAddress(_address);\n    }\n\n    function isSellAddress(address _address) public view returns (bool) {\n        return _sellAddresses[_address];\n    }\n\n    function isExceptionAddress(address account) public view returns (bool) {\n        return _exceptionAddresses[account];\n    }\n\n    function isAvailableToClaim(address account) public view returns (bool) {\n        if (_nextClaimTime[account] == 0) {\n            return true;\n        }\n        return _nextClaimTime[account] < block.timestamp;\n    }\n\n    function setNextAvailableClaimTime(address account) public onlyStaker {\n        _nextClaimTime[account] = block.timestamp + rewardCycleBlock;\n    }\n\n    function setStakerAddress(address account) public onlyOwner {\n        stakerAddress = account;\n    }\n\n    function setAirdropEnabled(bool _enabled) public onlyOwner {\n        airdropEnabled = _enabled;\n    }\n\n    function getValuesWithSellRate(\n        uint256 amount,\n        address from,\n        address to\n    ) private view returns (uint256, uint256) {\n        uint256 fee = 0;\n        uint256 transferAmount = amount;\n        if (isSellAddress(to) && !isExceptionAddress(from)) {\n            fee = amount.mul(sellFeeRate).div(10**3);\n            transferAmount = amount.sub(fee);\n        }\n        return (fee, transferAmount);\n    }\n\n    function topUpClaimCycleAfterTransfer(address recipient, uint256 amount)\n        private\n    {\n        uint256 currentRecipientBalance = balanceOf(recipient);\n\n        uint256 nextClaim = _nextClaimTime[recipient];\n        if (nextClaim < block.timestamp && currentRecipientBalance > 0) {\n            nextClaim = block.timestamp;\n        }\n\n        _nextClaimTime[recipient] =\n            nextClaim +\n            calculateTopUpClaim(\n                currentRecipientBalance,\n                rewardCycleBlock,\n                threshHoldTopUpRate,\n                amount\n            );\n\n        if (_nextClaimTime[recipient] > block.timestamp + 7 * 24 * 60 * 60 - 1) // 7 days\n        {\n            _nextClaimTime[recipient] = block.timestamp + 7 * 24 * 60 * 60;\n        }\n    }\n\n    function calculateTopUpClaim(\n        uint256 currentRecipientBalance,\n        uint256 basedRewardCycleBlock,\n        uint256 _threshHoldTopUpRate,\n        uint256 amount\n    ) public view returns (uint256) {\n        if (currentRecipientBalance == 0) {\n            return block.timestamp + basedRewardCycleBlock;\n        } else {\n            uint256 rate = amount.mul(100).div(currentRecipientBalance);\n\n            if (uint256(rate) >= _threshHoldTopUpRate) {\n                uint256 incurCycleBlock = basedRewardCycleBlock\n                    .mul(uint256(rate))\n                    .div(100);\n\n                if (incurCycleBlock >= basedRewardCycleBlock) {\n                    incurCycleBlock = basedRewardCycleBlock;\n                }\n\n                return incurCycleBlock;\n            }\n\n            return 0;\n        }\n    }\n\n    function getNextAvailableClaimTime(address account) public view returns (uint256) {\n        if (_nextClaimTime[account] == 0) {\n            return block.timestamp - 60 seconds;\n        }\n        return _nextClaimTime[account];\n    }\n\n}\n",
  "sourcePath": "/Users/phuongnguyen/Desktop/test.cryptowar.network/contracts/xBlade.sol",
  "compiler": {
    "name": "solc",
    "version": "0.6.5+commit.f956cc89.Emscripten.clang"
  },
  "schemaVersion": "3.4.4",
  "updatedAt": "2022-02-13T10:54:01.976Z",
  "devdoc": {
    "methods": {
      "allowance(address,address)": {
        "details": "See {IERC20-allowance}."
      },
      "balanceOf(address)": {
        "details": "See {IERC20-balanceOf}."
      },
      "decimals()": {
        "details": "Returns the number of decimals used to get its user representation. For example, if `decimals` equals `2`, a balance of `505` tokens should be displayed to a user as `5,05` (`505 / 10 ** 2`).     * Tokens usually opt for a value of 18, imitating the relationship between Ether and Wei. This is the value {ERC20} uses, unless {_setupDecimals} is called.     * NOTE: This information is only used for _display_ purposes: it in no way affects any of the arithmetic of the contract, including {IERC20-balanceOf} and {IERC20-transfer}."
      },
      "name()": {
        "details": "Returns the name of the token."
      },
      "owner()": {
        "details": "Returns the address of the current owner."
      },
      "paused()": {
        "details": "Returns true if the contract is paused, and false otherwise."
      },
      "renounceOwnership()": {
        "details": "Leaves the contract without owner. It will not be possible to call `onlyOwner` functions anymore. Can only be called by the current owner.     * NOTE: Renouncing ownership will leave the contract without an owner, thereby removing any functionality that is only available to the owner."
      },
      "symbol()": {
        "details": "Returns the symbol of the token, usually a shorter version of the name."
      },
      "transferOwnership(address)": {
        "details": "Transfers ownership of the contract to a new account (`newOwner`). Can only be called by the current owner."
      }
    }
  },
  "userdoc": {
    "methods": {}
  }
}